{
  "_format": "hh-sol-artifact-1",
  "contractName": "DAOV2",
  "sourceName": "contracts/DAOV2.sol",
  "abi": [
    {
      "inputs": [
        {
          "internalType": "string",
          "name": "name_",
          "type": "string"
        }
      ],
      "stateMutability": "nonpayable",
      "type": "constructor"
    },
    {
      "anonymous": false,
      "inputs": [
        {
          "indexed": true,
          "internalType": "address",
          "name": "account",
          "type": "address"
        },
        {
          "indexed": true,
          "internalType": "address",
          "name": "operator",
          "type": "address"
        },
        {
          "indexed": false,
          "internalType": "bool",
          "name": "approved",
          "type": "bool"
        }
      ],
      "name": "ApprovalForAll",
      "type": "event"
    },
    {
      "anonymous": false,
      "inputs": [
        {
          "indexed": false,
          "internalType": "address",
          "name": "userAddress",
          "type": "address"
        },
        {
          "indexed": false,
          "internalType": "address payable",
          "name": "relayerAddress",
          "type": "address"
        },
        {
          "indexed": false,
          "internalType": "bytes",
          "name": "functionSignature",
          "type": "bytes"
        }
      ],
      "name": "MetaTransactionExecuted",
      "type": "event"
    },
    {
      "anonymous": false,
      "inputs": [
        {
          "indexed": true,
          "internalType": "address",
          "name": "operator",
          "type": "address"
        },
        {
          "indexed": true,
          "internalType": "address",
          "name": "from",
          "type": "address"
        },
        {
          "indexed": true,
          "internalType": "address",
          "name": "to",
          "type": "address"
        },
        {
          "indexed": false,
          "internalType": "uint256[]",
          "name": "ids",
          "type": "uint256[]"
        },
        {
          "indexed": false,
          "internalType": "uint256[]",
          "name": "values",
          "type": "uint256[]"
        }
      ],
      "name": "TransferBatch",
      "type": "event"
    },
    {
      "anonymous": false,
      "inputs": [
        {
          "indexed": true,
          "internalType": "address",
          "name": "operator",
          "type": "address"
        },
        {
          "indexed": true,
          "internalType": "address",
          "name": "from",
          "type": "address"
        },
        {
          "indexed": true,
          "internalType": "address",
          "name": "to",
          "type": "address"
        },
        {
          "indexed": false,
          "internalType": "uint256",
          "name": "id",
          "type": "uint256"
        },
        {
          "indexed": false,
          "internalType": "uint256",
          "name": "value",
          "type": "uint256"
        }
      ],
      "name": "TransferSingle",
      "type": "event"
    },
    {
      "anonymous": false,
      "inputs": [
        {
          "indexed": false,
          "internalType": "string",
          "name": "value",
          "type": "string"
        },
        {
          "indexed": true,
          "internalType": "uint256",
          "name": "id",
          "type": "uint256"
        }
      ],
      "name": "URI",
      "type": "event"
    },
    {
      "anonymous": false,
      "inputs": [
        {
          "indexed": false,
          "internalType": "address",
          "name": "newOwner",
          "type": "address"
        }
      ],
      "name": "contractSaleEvent",
      "type": "event"
    },
    {
      "inputs": [],
      "name": "ERC712_VERSION",
      "outputs": [
        {
          "internalType": "string",
          "name": "",
          "type": "string"
        }
      ],
      "stateMutability": "view",
      "type": "function"
    },
    {
      "inputs": [
        {
          "internalType": "string[]",
          "name": "newTokens",
          "type": "string[]"
        }
      ],
      "name": "addNewTokenIDs",
      "outputs": [],
      "stateMutability": "nonpayable",
      "type": "function"
    },
    {
      "inputs": [
        {
          "internalType": "address[]",
          "name": "newOwners",
          "type": "address[]"
        }
      ],
      "name": "addOwners",
      "outputs": [],
      "stateMutability": "nonpayable",
      "type": "function"
    },
    {
      "inputs": [
        {
          "internalType": "address",
          "name": "account",
          "type": "address"
        },
        {
          "internalType": "uint256",
          "name": "id",
          "type": "uint256"
        }
      ],
      "name": "balanceOf",
      "outputs": [
        {
          "internalType": "uint256",
          "name": "",
          "type": "uint256"
        }
      ],
      "stateMutability": "view",
      "type": "function"
    },
    {
      "inputs": [
        {
          "internalType": "address[]",
          "name": "accounts",
          "type": "address[]"
        },
        {
          "internalType": "uint256[]",
          "name": "ids",
          "type": "uint256[]"
        }
      ],
      "name": "balanceOfBatch",
      "outputs": [
        {
          "internalType": "uint256[]",
          "name": "",
          "type": "uint256[]"
        }
      ],
      "stateMutability": "view",
      "type": "function"
    },
    {
      "inputs": [
        {
          "internalType": "string",
          "name": "newOwnerName",
          "type": "string"
        },
        {
          "internalType": "string",
          "name": "newDaoName",
          "type": "string"
        }
      ],
      "name": "buyOwnership",
      "outputs": [],
      "stateMutability": "payable",
      "type": "function"
    },
    {
      "inputs": [],
      "name": "contractSold",
      "outputs": [
        {
          "internalType": "bool",
          "name": "",
          "type": "bool"
        }
      ],
      "stateMutability": "view",
      "type": "function"
    },
    {
      "inputs": [
        {
          "internalType": "address",
          "name": "userAddress",
          "type": "address"
        },
        {
          "internalType": "bytes",
          "name": "functionSignature",
          "type": "bytes"
        },
        {
          "internalType": "bytes32",
          "name": "sigR",
          "type": "bytes32"
        },
        {
          "internalType": "bytes32",
          "name": "sigS",
          "type": "bytes32"
        },
        {
          "internalType": "uint8",
          "name": "sigV",
          "type": "uint8"
        }
      ],
      "name": "executeMetaTransaction",
      "outputs": [
        {
          "internalType": "bytes",
          "name": "",
          "type": "bytes"
        }
      ],
      "stateMutability": "payable",
      "type": "function"
    },
    {
      "inputs": [],
      "name": "getChainId",
      "outputs": [
        {
          "internalType": "uint256",
          "name": "",
          "type": "uint256"
        }
      ],
      "stateMutability": "view",
      "type": "function"
    },
    {
      "inputs": [],
      "name": "getDomainSeperator",
      "outputs": [
        {
          "internalType": "bytes32",
          "name": "",
          "type": "bytes32"
        }
      ],
      "stateMutability": "view",
      "type": "function"
    },
    {
      "inputs": [
        {
          "internalType": "address",
          "name": "user",
          "type": "address"
        }
      ],
      "name": "getNonce",
      "outputs": [
        {
          "internalType": "uint256",
          "name": "nonce",
          "type": "uint256"
        }
      ],
      "stateMutability": "view",
      "type": "function"
    },
    {
      "inputs": [
        {
          "internalType": "uint256",
          "name": "",
          "type": "uint256"
        },
        {
          "internalType": "address",
          "name": "",
          "type": "address"
        }
      ],
      "name": "hasVoted",
      "outputs": [
        {
          "internalType": "bool",
          "name": "",
          "type": "bool"
        }
      ],
      "stateMutability": "view",
      "type": "function"
    },
    {
      "inputs": [
        {
          "internalType": "address",
          "name": "_owner",
          "type": "address"
        },
        {
          "internalType": "address",
          "name": "_operator",
          "type": "address"
        }
      ],
      "name": "isApprovedForAll",
      "outputs": [
        {
          "internalType": "bool",
          "name": "isOperator",
          "type": "bool"
        }
      ],
      "stateMutability": "view",
      "type": "function"
    },
    {
      "inputs": [
        {
          "internalType": "address",
          "name": "",
          "type": "address"
        }
      ],
      "name": "isOwner",
      "outputs": [
        {
          "internalType": "bool",
          "name": "",
          "type": "bool"
        }
      ],
      "stateMutability": "view",
      "type": "function"
    },
    {
      "inputs": [],
      "name": "name",
      "outputs": [
        {
          "internalType": "string",
          "name": "",
          "type": "string"
        }
      ],
      "stateMutability": "view",
      "type": "function"
    },
    {
      "inputs": [
        {
          "internalType": "bytes32",
          "name": "newName",
          "type": "bytes32"
        }
      ],
      "name": "newProposal",
      "outputs": [],
      "stateMutability": "nonpayable",
      "type": "function"
    },
    {
      "inputs": [],
      "name": "originalSeller",
      "outputs": [
        {
          "internalType": "address",
          "name": "",
          "type": "address"
        }
      ],
      "stateMutability": "view",
      "type": "function"
    },
    {
      "inputs": [],
      "name": "ownerName",
      "outputs": [
        {
          "internalType": "string",
          "name": "",
          "type": "string"
        }
      ],
      "stateMutability": "view",
      "type": "function"
    },
    {
      "inputs": [
        {
          "internalType": "uint256",
          "name": "",
          "type": "uint256"
        }
      ],
      "name": "owners",
      "outputs": [
        {
          "internalType": "address",
          "name": "",
          "type": "address"
        }
      ],
      "stateMutability": "view",
      "type": "function"
    },
    {
      "inputs": [
        {
          "internalType": "uint256",
          "name": "",
          "type": "uint256"
        }
      ],
      "name": "proposals",
      "outputs": [
        {
          "internalType": "bytes32",
          "name": "name",
          "type": "bytes32"
        },
        {
          "internalType": "uint256",
          "name": "upVotes",
          "type": "uint256"
        },
        {
          "internalType": "uint256",
          "name": "downVotes",
          "type": "uint256"
        }
      ],
      "stateMutability": "view",
      "type": "function"
    },
    {
      "inputs": [
        {
          "internalType": "address",
          "name": "from",
          "type": "address"
        },
        {
          "internalType": "address",
          "name": "to",
          "type": "address"
        },
        {
          "internalType": "uint256[]",
          "name": "ids",
          "type": "uint256[]"
        },
        {
          "internalType": "uint256[]",
          "name": "amounts",
          "type": "uint256[]"
        },
        {
          "internalType": "bytes",
          "name": "data",
          "type": "bytes"
        }
      ],
      "name": "safeBatchTransferFrom",
      "outputs": [],
      "stateMutability": "nonpayable",
      "type": "function"
    },
    {
      "inputs": [
        {
          "internalType": "address",
          "name": "from",
          "type": "address"
        },
        {
          "internalType": "address",
          "name": "to",
          "type": "address"
        },
        {
          "internalType": "uint256",
          "name": "id",
          "type": "uint256"
        },
        {
          "internalType": "uint256",
          "name": "amount",
          "type": "uint256"
        },
        {
          "internalType": "bytes",
          "name": "data",
          "type": "bytes"
        }
      ],
      "name": "safeTransferFrom",
      "outputs": [],
      "stateMutability": "nonpayable",
      "type": "function"
    },
    {
      "inputs": [],
      "name": "salePrice",
      "outputs": [
        {
          "internalType": "uint256",
          "name": "",
          "type": "uint256"
        }
      ],
      "stateMutability": "view",
      "type": "function"
    },
    {
      "inputs": [
        {
          "internalType": "address",
          "name": "operator",
          "type": "address"
        },
        {
          "internalType": "bool",
          "name": "approved",
          "type": "bool"
        }
      ],
      "name": "setApprovalForAll",
      "outputs": [],
      "stateMutability": "nonpayable",
      "type": "function"
    },
    {
      "inputs": [
        {
          "internalType": "string",
          "name": "newURI",
          "type": "string"
        }
      ],
      "name": "setBaseURI",
      "outputs": [],
      "stateMutability": "nonpayable",
      "type": "function"
    },
    {
      "inputs": [
        {
          "internalType": "bytes4",
          "name": "interfaceId",
          "type": "bytes4"
        }
      ],
      "name": "supportsInterface",
      "outputs": [
        {
          "internalType": "bool",
          "name": "",
          "type": "bool"
        }
      ],
      "stateMutability": "view",
      "type": "function"
    },
    {
      "inputs": [
        {
          "internalType": "uint256",
          "name": "",
          "type": "uint256"
        }
      ],
      "name": "tokenIdArray",
      "outputs": [
        {
          "internalType": "uint256",
          "name": "",
          "type": "uint256"
        }
      ],
      "stateMutability": "view",
      "type": "function"
    },
    {
      "inputs": [
        {
          "internalType": "string",
          "name": "",
          "type": "string"
        }
      ],
      "name": "tokenIdMapping",
      "outputs": [
        {
          "internalType": "uint256",
          "name": "",
          "type": "uint256"
        }
      ],
      "stateMutability": "view",
      "type": "function"
    },
    {
      "inputs": [
        {
          "internalType": "uint256",
          "name": "",
          "type": "uint256"
        }
      ],
      "name": "uri",
      "outputs": [
        {
          "internalType": "string",
          "name": "",
          "type": "string"
        }
      ],
      "stateMutability": "view",
      "type": "function"
    },
    {
      "inputs": [
        {
          "internalType": "uint256",
          "name": "index",
          "type": "uint256"
        }
      ],
      "name": "voteDown",
      "outputs": [],
      "stateMutability": "nonpayable",
      "type": "function"
    },
    {
      "inputs": [
        {
          "internalType": "uint256",
          "name": "index",
          "type": "uint256"
        }
      ],
      "name": "voteUp",
      "outputs": [],
      "stateMutability": "nonpayable",
      "type": "function"
    },
    {
      "inputs": [],
      "name": "withdraw",
      "outputs": [],
      "stateMutability": "payable",
      "type": "function"
    }
  ],
  "bytecode": "0x60806040526000600360006101000a81548160ff0219169083151502179055503480156200002c57600080fd5b506040516200560b3803806200560b83398181016040528101906200005291906200033c565b604051806020016040528060008152506200007381620000c060201b60201c565b506000600660006101000a81548160ff0219169083151502179055508060079080519060200190620000a79291906200021a565b50620000b981620000dc60201b60201c565b50620005e4565b8060029080519060200190620000d89291906200021a565b5050565b600360009054906101000a900460ff16156200012f576040517f08c379a0000000000000000000000000000000000000000000000000000000008152600401620001269062000442565b60405180910390fd5b62000140816200015e60201b60201c565b6001600360006101000a81548160ff02191690831515021790555050565b6040518060800160405280604f8152602001620055bc604f91398051906020012081805190602001206040518060400160405280600181526020017f31000000000000000000000000000000000000000000000000000000000000008152508051906020012030620001d56200020d60201b60201c565b60001b604051602001620001ee959493929190620003e5565b6040516020818303038152906040528051906020012060048190555050565b6000804690508091505090565b828054620002289062000550565b90600052602060002090601f0160209004810192826200024c576000855562000298565b82601f106200026757805160ff191683800117855562000298565b8280016001018555821562000298579182015b82811115620002975782518255916020019190600101906200027a565b5b509050620002a79190620002ab565b5090565b5b80821115620002c6576000816000905550600101620002ac565b5090565b6000620002e1620002db8462000498565b62000464565b905082815260208101848484011115620002fa57600080fd5b620003078482856200051a565b509392505050565b600082601f8301126200032157600080fd5b815162000333848260208601620002ca565b91505092915050565b6000602082840312156200034f57600080fd5b600082015167ffffffffffffffff8111156200036a57600080fd5b62000378848285016200030f565b91505092915050565b6200038c81620004dc565b82525050565b6200039d81620004f0565b82525050565b6000620003b2600e83620004cb565b91507f616c726561647920696e697465640000000000000000000000000000000000006000830152602082019050919050565b600060a082019050620003fc600083018862000392565b6200040b602083018762000392565b6200041a604083018662000392565b62000429606083018562000381565b62000438608083018462000392565b9695505050505050565b600060208201905081810360008301526200045d81620003a3565b9050919050565b6000604051905081810181811067ffffffffffffffff821117156200048e576200048d620005b5565b5b8060405250919050565b600067ffffffffffffffff821115620004b657620004b5620005b5565b5b601f19601f8301169050602081019050919050565b600082825260208201905092915050565b6000620004e982620004fa565b9050919050565b6000819050919050565b600073ffffffffffffffffffffffffffffffffffffffff82169050919050565b60005b838110156200053a5780820151818401526020810190506200051d565b838111156200054a576000848401525b50505050565b600060028204905060018216806200056957607f821691505b6020821081141562000580576200057f62000586565b5b50919050565b7f4e487b7100000000000000000000000000000000000000000000000000000000600052602260045260246000fd5b7f4e487b7100000000000000000000000000000000000000000000000000000000600052604160045260246000fd5b614fc880620005f46000396000f3fe6080604052600436106101e25760003560e01c80634e1273f411610102578063b88eabdd11610095578063e985e9c511610064578063e985e9c51461072a578063eda72b2e14610767578063f242432a14610790578063f51f96dd146107b9576101e2565b8063b88eabdd1461066b578063bb22ff1b146106a8578063c460a44d146106e5578063d4ebc5ff14610701576101e2565b80638f9f1030116100d15780638f9f1030146105c5578063a22cb465146105ee578063ac50af5f14610617578063af4055f614610640576101e2565b80634e1273f41461050b57806355f804b31461054857806365ac2320146105715780636c46a2c51461059c576101e2565b806320379ee51161017a5780633408e470116101495780633408e4701461046e5780633ccfd60b1461049957806343859632146104a35780634bee5844146104e0576101e2565b806320379ee5146103a05780632d0335ab146103cb5780632eb2c2d6146104085780632f54bf6e14610431576101e2565b806306fdde03116101b657806306fdde03146102dd5780630c53c51c146103085780630e89341c146103385780630f7e597014610375576101e2565b8062fdd58e146101e7578063013cf08b1461022457806301ffc9a714610263578063025e7c27146102a0575b600080fd5b3480156101f357600080fd5b5061020e6004803603810190610209919061359c565b6107e4565b60405161021b9190614965565b60405180910390f35b34801561023057600080fd5b5061024b600480360381019061024691906137ee565b6108ad565b60405161025a939291906145a5565b60405180910390f35b34801561026f57600080fd5b5061028a600480360381019061028591906136ef565b6108e7565b604051610297919061452a565b60405180910390f35b3480156102ac57600080fd5b506102c760048036038101906102c291906137ee565b6109c9565b6040516102d491906143b6565b60405180910390f35b3480156102e957600080fd5b506102f2610a08565b6040516102ff9190614643565b60405180910390f35b610322600480360381019061031d919061350d565b610a96565b60405161032f9190614621565b60405180910390f35b34801561034457600080fd5b5061035f600480360381019061035a91906137ee565b610d01565b60405161036c9190614643565b60405180910390f35b34801561038157600080fd5b5061038a610d95565b6040516103979190614643565b60405180910390f35b3480156103ac57600080fd5b506103b5610dce565b6040516103c29190614545565b60405180910390f35b3480156103d757600080fd5b506103f260048036038101906103ed919061331e565b610dd8565b6040516103ff9190614965565b60405180910390f35b34801561041457600080fd5b5061042f600480360381019061042a9190613383565b610e21565b005b34801561043d57600080fd5b506104586004803603810190610453919061331e565b611217565b604051610465919061452a565b60405180910390f35b34801561047a57600080fd5b50610483611237565b6040516104909190614965565b60405180910390f35b6104a1611244565b005b3480156104af57600080fd5b506104ca60048036038101906104c59190613817565b6113be565b6040516104d7919061452a565b60405180910390f35b3480156104ec57600080fd5b506104f56113ed565b60405161050291906143b6565b60405180910390f35b34801561051757600080fd5b50610532600480360381019061052d9190613619565b611405565b60405161053f91906144d1565b60405180910390f35b34801561055457600080fd5b5061056f600480360381019061056a9190613741565b6115b6565b005b34801561057d57600080fd5b50610586611658565b6040516105939190614643565b60405180910390f35b3480156105a857600080fd5b506105c360048036038101906105be91906135d8565b6116e6565b005b3480156105d157600080fd5b506105ec60048036038101906105e79190613685565b61199d565b005b3480156105fa57600080fd5b50610615600480360381019061061091906134d1565b611b27565b005b34801561062357600080fd5b5061063e600480360381019061063991906136c6565b611ca8565b005b34801561064c57600080fd5b50610655611da9565b604051610662919061452a565b60405180910390f35b34801561067757600080fd5b50610692600480360381019061068d9190613741565b611dbc565b60405161069f9190614965565b60405180910390f35b3480156106b457600080fd5b506106cf60048036038101906106ca91906137ee565b611dea565b6040516106dc9190614965565b60405180910390f35b6106ff60048036038101906106fa9190613782565b611e0e565b005b34801561070d57600080fd5b50610728600480360381019061072391906137ee565b61205a565b005b34801561073657600080fd5b50610751600480360381019061074c9190613347565b612219565b60405161075e919061452a565b60405180910390f35b34801561077357600080fd5b5061078e600480360381019061078991906137ee565b61227f565b005b34801561079c57600080fd5b506107b760048036038101906107b29190613442565b61243e565b005b3480156107c557600080fd5b506107ce612756565b6040516107db9190614965565b60405180910390f35b60008073ffffffffffffffffffffffffffffffffffffffff168373ffffffffffffffffffffffffffffffffffffffff161415610855576040517f08c379a000000000000000000000000000000000000000000000000000000000815260040161084c906146c5565b60405180910390fd5b60008083815260200190815260200160002060008473ffffffffffffffffffffffffffffffffffffffff1673ffffffffffffffffffffffffffffffffffffffff16815260200190815260200160002054905092915050565b600e81815481106108bd57600080fd5b90600052602060002090600302016000915090508060000154908060010154908060020154905083565b60007fd9b67a26000000000000000000000000000000000000000000000000000000007bffffffffffffffffffffffffffffffffffffffffffffffffffffffff1916827bffffffffffffffffffffffffffffffffffffffffffffffffffffffff191614806109b257507f0e89341c000000000000000000000000000000000000000000000000000000007bffffffffffffffffffffffffffffffffffffffffffffffffffffffff1916827bffffffffffffffffffffffffffffffffffffffffffffffffffffffff1916145b806109c257506109c182612762565b5b9050919050565b600c81815481106109d957600080fd5b906000526020600020016000915054906101000a900473ffffffffffffffffffffffffffffffffffffffff1681565b60078054610a1590614cae565b80601f0160208091040260200160405190810160405280929190818152602001828054610a4190614cae565b8015610a8e5780601f10610a6357610100808354040283529160200191610a8e565b820191906000526020600020905b815481529060010190602001808311610a7157829003601f168201915b505050505081565b606060006040518060600160405280600560008a73ffffffffffffffffffffffffffffffffffffffff1673ffffffffffffffffffffffffffffffffffffffff1681526020019081526020016000205481526020018873ffffffffffffffffffffffffffffffffffffffff168152602001878152509050610b1987828787876127cc565b610b58576040517f08c379a0000000000000000000000000000000000000000000000000000000008152600401610b4f90614865565b60405180910390fd5b6001600560008973ffffffffffffffffffffffffffffffffffffffff1673ffffffffffffffffffffffffffffffffffffffff16815260200190815260200160002054610ba49190614b45565b600560008973ffffffffffffffffffffffffffffffffffffffff1673ffffffffffffffffffffffffffffffffffffffff168152602001908152602001600020819055507f5845892132946850460bff5a0083f71031bc5bf9aadcd40f1de79423eac9b10b873388604051610c1a939291906143d1565b60405180910390a16000803073ffffffffffffffffffffffffffffffffffffffff16888a604051602001610c4f92919061432b565b604051602081830303815290604052604051610c6b9190614314565b6000604051808303816000865af19150503d8060008114610ca8576040519150601f19603f3d011682016040523d82523d6000602084013e610cad565b606091505b509150915081610cf2576040517f08c379a0000000000000000000000000000000000000000000000000000000008152600401610ce9906146e5565b60405180910390fd5b80935050505095945050505050565b606060028054610d1090614cae565b80601f0160208091040260200160405190810160405280929190818152602001828054610d3c90614cae565b8015610d895780601f10610d5e57610100808354040283529160200191610d89565b820191906000526020600020905b815481529060010190602001808311610d6c57829003601f168201915b50505050509050919050565b6040518060400160405280600181526020017f310000000000000000000000000000000000000000000000000000000000000081525081565b6000600454905090565b6000600560008373ffffffffffffffffffffffffffffffffffffffff1673ffffffffffffffffffffffffffffffffffffffff168152602001908152602001600020549050919050565b8151835114610e65576040517f08c379a0000000000000000000000000000000000000000000000000000000008152600401610e5c90614925565b60405180910390fd5b600073ffffffffffffffffffffffffffffffffffffffff168473ffffffffffffffffffffffffffffffffffffffff161415610ed5576040517f08c379a0000000000000000000000000000000000000000000000000000000008152600401610ecc906147c5565b60405180910390fd5b610edd6128d5565b73ffffffffffffffffffffffffffffffffffffffff168573ffffffffffffffffffffffffffffffffffffffff161480610f235750610f2285610f1d6128d5565b612219565b5b610f62576040517f08c379a0000000000000000000000000000000000000000000000000000000008152600401610f59906147e5565b60405180910390fd5b6000610f6c6128d5565b9050610f7c8187878787876128e4565b60005b8451811015611182576000858281518110610fc3577f4e487b7100000000000000000000000000000000000000000000000000000000600052603260045260246000fd5b602002602001015190506000858381518110611008577f4e487b7100000000000000000000000000000000000000000000000000000000600052603260045260246000fd5b60200260200101519050600080600084815260200190815260200160002060008b73ffffffffffffffffffffffffffffffffffffffff1673ffffffffffffffffffffffffffffffffffffffff168152602001908152602001600020549050818110156110a9576040517f08c379a00000000000000000000000000000000000000000000000000000000081526004016110a090614825565b60405180910390fd5b81816110b59190614b9b565b60008085815260200190815260200160002060008c73ffffffffffffffffffffffffffffffffffffffff1673ffffffffffffffffffffffffffffffffffffffff168152602001908152602001600020819055508160008085815260200190815260200160002060008b73ffffffffffffffffffffffffffffffffffffffff1673ffffffffffffffffffffffffffffffffffffffff16815260200190815260200160002060008282546111679190614b45565b925050819055505050508061117b90614ce0565b9050610f7f565b508473ffffffffffffffffffffffffffffffffffffffff168673ffffffffffffffffffffffffffffffffffffffff168273ffffffffffffffffffffffffffffffffffffffff167f4a39dc06d4c0dbc64b70af90fd698a233a518aa5d07e595d983b8c0526c8f7fb87876040516111f99291906144f3565b60405180910390a461120f8187878787876128ec565b505050505050565b600b6020528060005260406000206000915054906101000a900460ff1681565b6000804690508091505090565b735f4c3843495babe89cb3516cebd8840024e741fa73ffffffffffffffffffffffffffffffffffffffff163373ffffffffffffffffffffffffffffffffffffffff16146112c6576040517f08c379a00000000000000000000000000000000000000000000000000000000081526004016112bd90614885565b60405180910390fd5b60004790506000811161130e576040517f08c379a000000000000000000000000000000000000000000000000000000000815260040161130590614845565b60405180910390fd5b60003373ffffffffffffffffffffffffffffffffffffffff1682604051611334906143a1565b60006040518083038185875af1925050503d8060008114611371576040519150601f19603f3d011682016040523d82523d6000602084013e611376565b606091505b50509050806113ba576040517f08c379a00000000000000000000000000000000000000000000000000000000081526004016113b1906148a5565b60405180910390fd5b5050565b600d6020528160005260406000206020528060005260406000206000915091509054906101000a900460ff1681565b735f4c3843495babe89cb3516cebd8840024e741fa81565b6060815183511461144b576040517f08c379a000000000000000000000000000000000000000000000000000000000815260040161144290614905565b60405180910390fd5b6000835167ffffffffffffffff81111561148e577f4e487b7100000000000000000000000000000000000000000000000000000000600052604160045260246000fd5b6040519080825280602002602001820160405280156114bc5781602001602082028036833780820191505090505b50905060005b84518110156115ab57611555858281518110611507577f4e487b7100000000000000000000000000000000000000000000000000000000600052603260045260246000fd5b6020026020010151858381518110611548577f4e487b7100000000000000000000000000000000000000000000000000000000600052603260045260246000fd5b60200260200101516107e4565b82828151811061158e577f4e487b7100000000000000000000000000000000000000000000000000000000600052603260045260246000fd5b602002602001018181525050806115a490614ce0565b90506114c2565b508091505092915050565b6001600b60003373ffffffffffffffffffffffffffffffffffffffff1673ffffffffffffffffffffffffffffffffffffffff16815260200190815260200160002060006101000a81548160ff021916908315150217905561164c576040517f08c379a000000000000000000000000000000000000000000000000000000000815260040161164390614805565b60405180910390fd5b61165581612abc565b50565b6008805461166590614cae565b80601f016020809104026020016040519081016040528092919081815260200182805461169190614cae565b80156116de5780601f106116b3576101008083540402835291602001916116de565b820191906000526020600020905b8154815290600101906020018083116116c157829003601f168201915b505050505081565b6001600b60003373ffffffffffffffffffffffffffffffffffffffff1673ffffffffffffffffffffffffffffffffffffffff16815260200190815260200160002060006101000a81548160ff021916908315150217905561177c576040517f08c379a000000000000000000000000000000000000000000000000000000000815260040161177390614805565b60405180910390fd5b60005b81518110156119995760008282815181106117c3577f4e487b7100000000000000000000000000000000000000000000000000000000600052603260045260246000fd5b60200260200101519050600073ffffffffffffffffffffffffffffffffffffffff168173ffffffffffffffffffffffffffffffffffffffff16141561183d576040517f08c379a000000000000000000000000000000000000000000000000000000000815260040161183490614945565b60405180910390fd5b600b60008273ffffffffffffffffffffffffffffffffffffffff1673ffffffffffffffffffffffffffffffffffffffff16815260200190815260200160002060009054906101000a900460ff16156118ca576040517f08c379a00000000000000000000000000000000000000000000000000000000081526004016118c1906146a5565b60405180910390fd5b6001600b60008373ffffffffffffffffffffffffffffffffffffffff1673ffffffffffffffffffffffffffffffffffffffff16815260200190815260200160002060006101000a81548160ff021916908315150217905550600c819080600181540180825580915050600190039060005260206000200160009091909190916101000a81548173ffffffffffffffffffffffffffffffffffffffff021916908373ffffffffffffffffffffffffffffffffffffffff16021790555050808061199190614ce0565b91505061177f565b5050565b6001600b60003373ffffffffffffffffffffffffffffffffffffffff1673ffffffffffffffffffffffffffffffffffffffff16815260200190815260200160002060006101000a81548160ff0219169083151502179055611a33576040517f08c379a0000000000000000000000000000000000000000000000000000000008152600401611a2a90614805565b60405180910390fd5b600181511015611a78576040517f08c379a0000000000000000000000000000000000000000000000000000000008152600401611a6f90614785565b60405180910390fd5b60005b8151811015611b2357806009838381518110611ac0577f4e487b7100000000000000000000000000000000000000000000000000000000600052603260045260246000fd5b6020026020010151604051611ad59190614353565b908152602001604051809103902081905550600a8190806001815401808255809150506001900390600052602060002001600090919091909150558080611b1b90614ce0565b915050611a7b565b5050565b8173ffffffffffffffffffffffffffffffffffffffff16611b466128d5565b73ffffffffffffffffffffffffffffffffffffffff161415611b9d576040517f08c379a0000000000000000000000000000000000000000000000000000000008152600401611b94906148e5565b60405180910390fd5b8060016000611baa6128d5565b73ffffffffffffffffffffffffffffffffffffffff1673ffffffffffffffffffffffffffffffffffffffff16815260200190815260200160002060008473ffffffffffffffffffffffffffffffffffffffff1673ffffffffffffffffffffffffffffffffffffffff16815260200190815260200160002060006101000a81548160ff0219169083151502179055508173ffffffffffffffffffffffffffffffffffffffff16611c576128d5565b73ffffffffffffffffffffffffffffffffffffffff167f17307eab39ab6107e8899845ad3d59bd9653f200f220920489ca2b5937696c3183604051611c9c919061452a565b60405180910390a35050565b6001600b60003373ffffffffffffffffffffffffffffffffffffffff1673ffffffffffffffffffffffffffffffffffffffff16815260200190815260200160002060006101000a81548160ff0219169083151502179055611d3e576040517f08c379a0000000000000000000000000000000000000000000000000000000008152600401611d3590614805565b60405180910390fd5b600e60405180606001604052808381526020016000815260200160008152509080600181540180825580915050600190039060005260206000209060030201600090919091909150600082015181600001556020820151816001015560408201518160020155505050565b600660009054906101000a900460ff1681565b6009818051602081018201805184825260208301602085012081835280955050505050506000915090505481565b600a8181548110611dfa57600080fd5b906000526020600020016000915090505481565b67016345785d8a0000341015611e59576040517f08c379a0000000000000000000000000000000000000000000000000000000008152600401611e50906148c5565b60405180910390fd5b60001515600660009054906101000a900460ff16151514611eaf576040517f08c379a0000000000000000000000000000000000000000000000000000000008152600401611ea690614745565b60405180910390fd5b6000600b6000735f4c3843495babe89cb3516cebd8840024e741fa73ffffffffffffffffffffffffffffffffffffffff1673ffffffffffffffffffffffffffffffffffffffff16815260200190815260200160002060006101000a81548160ff0219169083151502179055506001600b60003373ffffffffffffffffffffffffffffffffffffffff1673ffffffffffffffffffffffffffffffffffffffff16815260200190815260200160002060006101000a81548160ff021916908315150217905550600c339080600181540180825580915050600190039060005260206000200160009091909190916101000a81548173ffffffffffffffffffffffffffffffffffffffff021916908373ffffffffffffffffffffffffffffffffffffffff1602179055506001600660006101000a81548160ff0219169083151502179055508160089080519060200190612007929190612f65565b50806007908051906020019061201e929190612f65565b507fd5b279c14917904ca8e198de8bc44a67edf9ee173f25b014d5f0869f6d47f74b3360405161204e91906143b6565b60405180910390a15050565b60006120673360006107e4565b116120a7576040517f08c379a000000000000000000000000000000000000000000000000000000000815260040161209e90614705565b60405180910390fd5b60011515600d600083815260200190815260200160002060003373ffffffffffffffffffffffffffffffffffffffff1673ffffffffffffffffffffffffffffffffffffffff16815260200190815260200160002060009054906101000a900460ff161515141561214c576040517f08c379a000000000000000000000000000000000000000000000000000000000815260040161214390614765565b60405180910390fd5b600e8181548110612186577f4e487b7100000000000000000000000000000000000000000000000000000000600052603260045260246000fd5b906000526020600020906003020160010160008154809291906121a890614ce0565b91905055506001600d600083815260200190815260200160002060003373ffffffffffffffffffffffffffffffffffffffff1673ffffffffffffffffffffffffffffffffffffffff16815260200190815260200160002060006101000a81548160ff02191690831515021790555050565b600073207fa8df3a17d96ca7ea4f2893fcdcb78a30410173ffffffffffffffffffffffffffffffffffffffff168273ffffffffffffffffffffffffffffffffffffffff16141561226c5760019050612279565b6122768383612ad6565b90505b92915050565b600061228c3360006107e4565b116122cc576040517f08c379a00000000000000000000000000000000000000000000000000000000081526004016122c390614705565b60405180910390fd5b60011515600d600083815260200190815260200160002060003373ffffffffffffffffffffffffffffffffffffffff1673ffffffffffffffffffffffffffffffffffffffff16815260200190815260200160002060009054906101000a900460ff1615151415612371576040517f08c379a000000000000000000000000000000000000000000000000000000000815260040161236890614765565b60405180910390fd5b600e81815481106123ab577f4e487b7100000000000000000000000000000000000000000000000000000000600052603260045260246000fd5b906000526020600020906003020160020160008154809291906123cd90614ce0565b91905055506001600d600083815260200190815260200160002060003373ffffffffffffffffffffffffffffffffffffffff1673ffffffffffffffffffffffffffffffffffffffff16815260200190815260200160002060006101000a81548160ff02191690831515021790555050565b600073ffffffffffffffffffffffffffffffffffffffff168473ffffffffffffffffffffffffffffffffffffffff1614156124ae576040517f08c379a00000000000000000000000000000000000000000000000000000000081526004016124a5906147c5565b60405180910390fd5b6124b66128d5565b73ffffffffffffffffffffffffffffffffffffffff168573ffffffffffffffffffffffffffffffffffffffff1614806124fc57506124fb856124f66128d5565b612219565b5b61253b576040517f08c379a000000000000000000000000000000000000000000000000000000000815260040161253290614725565b60405180910390fd5b60006125456128d5565b905061256581878761255688612b6a565b61255f88612b6a565b876128e4565b600080600086815260200190815260200160002060008873ffffffffffffffffffffffffffffffffffffffff1673ffffffffffffffffffffffffffffffffffffffff168152602001908152602001600020549050838110156125fc576040517f08c379a00000000000000000000000000000000000000000000000000000000081526004016125f390614825565b60405180910390fd5b83816126089190614b9b565b60008087815260200190815260200160002060008973ffffffffffffffffffffffffffffffffffffffff1673ffffffffffffffffffffffffffffffffffffffff168152602001908152602001600020819055508360008087815260200190815260200160002060008873ffffffffffffffffffffffffffffffffffffffff1673ffffffffffffffffffffffffffffffffffffffff16815260200190815260200160002060008282546126ba9190614b45565b925050819055508573ffffffffffffffffffffffffffffffffffffffff168773ffffffffffffffffffffffffffffffffffffffff168373ffffffffffffffffffffffffffffffffffffffff167fc3d58168c5ae7397731d063d5bbf3d657854427343f4c083240f7aacaa2d0f628888604051612737929190614980565b60405180910390a461274d828888888888612c30565b50505050505050565b67016345785d8a000081565b60007f01ffc9a7000000000000000000000000000000000000000000000000000000007bffffffffffffffffffffffffffffffffffffffffffffffffffffffff1916827bffffffffffffffffffffffffffffffffffffffffffffffffffffffff1916149050919050565b60008073ffffffffffffffffffffffffffffffffffffffff168673ffffffffffffffffffffffffffffffffffffffff16141561283d576040517f08c379a0000000000000000000000000000000000000000000000000000000008152600401612834906147a5565b60405180910390fd5b600161285061284b87612e00565b612e68565b8386866040516000815260200160405260405161287094939291906145dc565b6020604051602081039080840390855afa158015612892573d6000803e3d6000fd5b5050506020604051035173ffffffffffffffffffffffffffffffffffffffff168673ffffffffffffffffffffffffffffffffffffffff1614905095945050505050565b60006128df612ea1565b905090565b505050505050565b61290b8473ffffffffffffffffffffffffffffffffffffffff16612f52565b15612ab4578373ffffffffffffffffffffffffffffffffffffffff1663bc197c8187878686866040518663ffffffff1660e01b815260040161295195949392919061440f565b602060405180830381600087803b15801561296b57600080fd5b505af192505050801561299c57506040513d601f19601f820116820180604052508101906129999190613718565b60015b612a2b576129a8614e0f565b806129b357506129f0565b806040517f08c379a00000000000000000000000000000000000000000000000000000000081526004016129e79190614643565b60405180910390fd5b6040517f08c379a0000000000000000000000000000000000000000000000000000000008152600401612a2290614665565b60405180910390fd5b63bc197c8160e01b7bffffffffffffffffffffffffffffffffffffffffffffffffffffffff1916817bffffffffffffffffffffffffffffffffffffffffffffffffffffffff191614612ab2576040517f08c379a0000000000000000000000000000000000000000000000000000000008152600401612aa990614685565b60405180910390fd5b505b505050505050565b8060029080519060200190612ad2929190612f65565b5050565b6000600160008473ffffffffffffffffffffffffffffffffffffffff1673ffffffffffffffffffffffffffffffffffffffff16815260200190815260200160002060008373ffffffffffffffffffffffffffffffffffffffff1673ffffffffffffffffffffffffffffffffffffffff16815260200190815260200160002060009054906101000a900460ff16905092915050565b60606000600167ffffffffffffffff811115612baf577f4e487b7100000000000000000000000000000000000000000000000000000000600052604160045260246000fd5b604051908082528060200260200182016040528015612bdd5781602001602082028036833780820191505090505b5090508281600081518110612c1b577f4e487b7100000000000000000000000000000000000000000000000000000000600052603260045260246000fd5b60200260200101818152505080915050919050565b612c4f8473ffffffffffffffffffffffffffffffffffffffff16612f52565b15612df8578373ffffffffffffffffffffffffffffffffffffffff1663f23a6e6187878686866040518663ffffffff1660e01b8152600401612c95959493929190614477565b602060405180830381600087803b158015612caf57600080fd5b505af1925050508015612ce057506040513d601f19601f82011682018060405250810190612cdd9190613718565b60015b612d6f57612cec614e0f565b80612cf75750612d34565b806040517f08c379a0000000000000000000000000000000000000000000000000000000008152600401612d2b9190614643565b60405180910390fd5b6040517f08c379a0000000000000000000000000000000000000000000000000000000008152600401612d6690614665565b60405180910390fd5b63f23a6e6160e01b7bffffffffffffffffffffffffffffffffffffffffffffffffffffffff1916817bffffffffffffffffffffffffffffffffffffffffffffffffffffffff191614612df6576040517f08c379a0000000000000000000000000000000000000000000000000000000008152600401612ded90614685565b60405180910390fd5b505b505050505050565b6000604051806080016040528060438152602001614f50604391398051906020012082600001518360200151846040015180519060200120604051602001612e4b9493929190614560565b604051602081830303815290604052805190602001209050919050565b6000612e72610dce565b82604051602001612e8492919061436a565b604051602081830303815290604052805190602001209050919050565b60003073ffffffffffffffffffffffffffffffffffffffff163373ffffffffffffffffffffffffffffffffffffffff161415612f4b57600080368080601f016020809104026020016040519081016040528093929190818152602001838380828437600081840152601f19601f820116905080830192505050505050509050600080369050905073ffffffffffffffffffffffffffffffffffffffff818301511692505050612f4f565b3390505b90565b600080823b905060008111915050919050565b828054612f7190614cae565b90600052602060002090601f016020900481019282612f935760008555612fda565b82601f10612fac57805160ff1916838001178555612fda565b82800160010185558215612fda579182015b82811115612fd9578251825591602001919060010190612fbe565b5b509050612fe79190612feb565b5090565b5b80821115613004576000816000905550600101612fec565b5090565b600061301b613016846149da565b6149a9565b9050808382526020820190508285602086028201111561303a57600080fd5b60005b8581101561306a578161305088826131b9565b84526020840193506020830192505060018101905061303d565b5050509392505050565b600061308761308284614a06565b6149a9565b9050808382526020820190508260005b858110156130c757813585016130ad88826132ca565b845260208401935060208301925050600181019050613097565b5050509392505050565b60006130e46130df84614a32565b6149a9565b9050808382526020820190508285602086028201111561310357600080fd5b60005b85811015613133578161311988826132f4565b845260208401935060208301925050600181019050613106565b5050509392505050565b600061315061314b84614a5e565b6149a9565b90508281526020810184848401111561316857600080fd5b613173848285614c6c565b509392505050565b600061318e61318984614a8e565b6149a9565b9050828152602081018484840111156131a657600080fd5b6131b1848285614c6c565b509392505050565b6000813590506131c881614ec5565b92915050565b600082601f8301126131df57600080fd5b81356131ef848260208601613008565b91505092915050565b600082601f83011261320957600080fd5b8135613219848260208601613074565b91505092915050565b600082601f83011261323357600080fd5b81356132438482602086016130d1565b91505092915050565b60008135905061325b81614edc565b92915050565b60008135905061327081614ef3565b92915050565b60008135905061328581614f0a565b92915050565b60008151905061329a81614f0a565b92915050565b600082601f8301126132b157600080fd5b81356132c184826020860161313d565b91505092915050565b600082601f8301126132db57600080fd5b81356132eb84826020860161317b565b91505092915050565b60008135905061330381614f21565b92915050565b60008135905061331881614f38565b92915050565b60006020828403121561333057600080fd5b600061333e848285016131b9565b91505092915050565b6000806040838503121561335a57600080fd5b6000613368858286016131b9565b9250506020613379858286016131b9565b9150509250929050565b600080600080600060a0868803121561339b57600080fd5b60006133a9888289016131b9565b95505060206133ba888289016131b9565b945050604086013567ffffffffffffffff8111156133d757600080fd5b6133e388828901613222565b935050606086013567ffffffffffffffff81111561340057600080fd5b61340c88828901613222565b925050608086013567ffffffffffffffff81111561342957600080fd5b613435888289016132a0565b9150509295509295909350565b600080600080600060a0868803121561345a57600080fd5b6000613468888289016131b9565b9550506020613479888289016131b9565b945050604061348a888289016132f4565b935050606061349b888289016132f4565b925050608086013567ffffffffffffffff8111156134b857600080fd5b6134c4888289016132a0565b9150509295509295909350565b600080604083850312156134e457600080fd5b60006134f2858286016131b9565b92505060206135038582860161324c565b9150509250929050565b600080600080600060a0868803121561352557600080fd5b6000613533888289016131b9565b955050602086013567ffffffffffffffff81111561355057600080fd5b61355c888289016132a0565b945050604061356d88828901613261565b935050606061357e88828901613261565b925050608061358f88828901613309565b9150509295509295909350565b600080604083850312156135af57600080fd5b60006135bd858286016131b9565b92505060206135ce858286016132f4565b9150509250929050565b6000602082840312156135ea57600080fd5b600082013567ffffffffffffffff81111561360457600080fd5b613610848285016131ce565b91505092915050565b6000806040838503121561362c57600080fd5b600083013567ffffffffffffffff81111561364657600080fd5b613652858286016131ce565b925050602083013567ffffffffffffffff81111561366f57600080fd5b61367b85828601613222565b9150509250929050565b60006020828403121561369757600080fd5b600082013567ffffffffffffffff8111156136b157600080fd5b6136bd848285016131f8565b91505092915050565b6000602082840312156136d857600080fd5b60006136e684828501613261565b91505092915050565b60006020828403121561370157600080fd5b600061370f84828501613276565b91505092915050565b60006020828403121561372a57600080fd5b60006137388482850161328b565b91505092915050565b60006020828403121561375357600080fd5b600082013567ffffffffffffffff81111561376d57600080fd5b613779848285016132ca565b91505092915050565b6000806040838503121561379557600080fd5b600083013567ffffffffffffffff8111156137af57600080fd5b6137bb858286016132ca565b925050602083013567ffffffffffffffff8111156137d857600080fd5b6137e4858286016132ca565b9150509250929050565b60006020828403121561380057600080fd5b600061380e848285016132f4565b91505092915050565b6000806040838503121561382a57600080fd5b6000613838858286016132f4565b9250506020613849858286016131b9565b9150509250929050565b600061385f83836142e7565b60208301905092915050565b61387481614be1565b82525050565b61388381614bcf565b82525050565b61389a61389582614bcf565b614d29565b82525050565b60006138ab82614ace565b6138b58185614afc565b93506138c083614abe565b8060005b838110156138f15781516138d88882613853565b97506138e383614aef565b9250506001810190506138c4565b5085935050505092915050565b61390781614bf3565b82525050565b61391681614bff565b82525050565b61392d61392882614bff565b614d3b565b82525050565b600061393e82614ad9565b6139488185614b0d565b9350613958818560208601614c7b565b61396181614de4565b840191505092915050565b600061397782614ad9565b6139818185614b1e565b9350613991818560208601614c7b565b80840191505092915050565b60006139a882614ae4565b6139b28185614b29565b93506139c2818560208601614c7b565b6139cb81614de4565b840191505092915050565b60006139e182614ae4565b6139eb8185614b3a565b93506139fb818560208601614c7b565b80840191505092915050565b6000613a14603483614b29565b91507f455243313135353a207472616e7366657220746f206e6f6e204552433131353560008301527f526563656976657220696d706c656d656e7465720000000000000000000000006020830152604082019050919050565b6000613a7a602883614b29565b91507f455243313135353a204552433131353552656365697665722072656a6563746560008301527f6420746f6b656e730000000000000000000000000000000000000000000000006020830152604082019050919050565b6000613ae0601083614b29565b91507f6f776e6572206e6f7420756e69717565000000000000000000000000000000006000830152602082019050919050565b6000613b20602b83614b29565b91507f455243313135353a2062616c616e636520717565727920666f7220746865207a60008301527f65726f20616464726573730000000000000000000000000000000000000000006020830152604082019050919050565b6000613b86601c83614b29565b91507f46756e6374696f6e2063616c6c206e6f74207375636365737366756c000000006000830152602082019050919050565b6000613bc6600283614b3a565b91507f19010000000000000000000000000000000000000000000000000000000000006000830152600282019050919050565b6000613c06602d83614b29565b91507f596f75206e656564206f776e657273686970206f66204e465473206f7220436f60008301527f696e7320666f7220746869732e000000000000000000000000000000000000006020830152604082019050919050565b6000613c6c602983614b29565b91507f455243313135353a2063616c6c6572206973206e6f74206f776e6572206e6f7260008301527f20617070726f76656400000000000000000000000000000000000000000000006020830152604082019050919050565b6000613cd2602383614b29565b91507f534f4c442e2046696e6420616e6f746865722044414f20746f2070757263686160008301527f73652e00000000000000000000000000000000000000000000000000000000006020830152604082019050919050565b6000613d38602283614b29565b91507f596f7520616c726561647920766f746564206f6e20746869732070726f706f7360008301527f616c0000000000000000000000000000000000000000000000000000000000006020830152604082019050919050565b6000613d9e601c83614b29565b91507f4e6f20617267756d656e747320776572652070617373656420696e2e000000006000830152602082019050919050565b6000613dde602583614b29565b91507f4e61746976654d6574615472616e73616374696f6e3a20494e56414c49445f5360008301527f49474e45520000000000000000000000000000000000000000000000000000006020830152604082019050919050565b6000613e44602583614b29565b91507f455243313135353a207472616e7366657220746f20746865207a65726f20616460008301527f64726573730000000000000000000000000000000000000000000000000000006020830152604082019050919050565b6000613eaa603283614b29565b91507f455243313135353a207472616e736665722063616c6c6572206973206e6f742060008301527f6f776e6572206e6f7220617070726f76656400000000000000000000000000006020830152604082019050919050565b6000613f10602483614b29565b91507f596f75206e65656420746f2068617665206f776e65727368697020666f72207460008301527f6869732e000000000000000000000000000000000000000000000000000000006020830152604082019050919050565b6000613f76602a83614b29565b91507f455243313135353a20696e73756666696369656e742062616c616e636520666f60008301527f72207472616e73666572000000000000000000000000000000000000000000006020830152604082019050919050565b6000613fdc601983614b29565b91507f4e6f206574686572206c65667420746f207769746864726177000000000000006000830152602082019050919050565b600061401c602183614b29565b91507f5369676e657220616e64207369676e617475726520646f206e6f74206d61746360008301527f68000000000000000000000000000000000000000000000000000000000000006020830152604082019050919050565b6000614082601f83614b29565b91507f596f7520617265206e6f7420746865206f726967696e616c2073656c6c6572006000830152602082019050919050565b60006140c2600083614b1e565b9150600082019050919050565b60006140dc601083614b29565b91507f5472616e73666572206661696c65642e000000000000000000000000000000006000830152602082019050919050565b600061411c601583614b29565b91507f4e6f7420656e6f756768207061792c20436861642e00000000000000000000006000830152602082019050919050565b600061415c602983614b29565b91507f455243313135353a2073657474696e6720617070726f76616c2073746174757360008301527f20666f722073656c6600000000000000000000000000000000000000000000006020830152604082019050919050565b60006141c2602983614b29565b91507f455243313135353a206163636f756e747320616e6420696473206c656e67746860008301527f206d69736d6174636800000000000000000000000000000000000000000000006020830152604082019050919050565b6000614228602883614b29565b91507f455243313135353a2069647320616e6420616d6f756e7473206c656e6774682060008301527f6d69736d617463680000000000000000000000000000000000000000000000006020830152604082019050919050565b600061428e602583614b29565b91507f696e76616c6964206f776e65722e2063616e6e6f74206265207a65726f20616460008301527f64726573730000000000000000000000000000000000000000000000000000006020830152604082019050919050565b6142f081614c55565b82525050565b6142ff81614c55565b82525050565b61430e81614c5f565b82525050565b6000614320828461396c565b915081905092915050565b6000614337828561396c565b91506143438284613889565b6014820191508190509392505050565b600061435f82846139d6565b915081905092915050565b600061437582613bb9565b9150614381828561391c565b602082019150614391828461391c565b6020820191508190509392505050565b60006143ac826140b5565b9150819050919050565b60006020820190506143cb600083018461387a565b92915050565b60006060820190506143e6600083018661387a565b6143f3602083018561386b565b81810360408301526144058184613933565b9050949350505050565b600060a082019050614424600083018861387a565b614431602083018761387a565b818103604083015261444381866138a0565b9050818103606083015261445781856138a0565b9050818103608083015261446b8184613933565b90509695505050505050565b600060a08201905061448c600083018861387a565b614499602083018761387a565b6144a660408301866142f6565b6144b360608301856142f6565b81810360808301526144c58184613933565b90509695505050505050565b600060208201905081810360008301526144eb81846138a0565b905092915050565b6000604082019050818103600083015261450d81856138a0565b9050818103602083015261452181846138a0565b90509392505050565b600060208201905061453f60008301846138fe565b92915050565b600060208201905061455a600083018461390d565b92915050565b6000608082019050614575600083018761390d565b61458260208301866142f6565b61458f604083018561387a565b61459c606083018461390d565b95945050505050565b60006060820190506145ba600083018661390d565b6145c760208301856142f6565b6145d460408301846142f6565b949350505050565b60006080820190506145f1600083018761390d565b6145fe6020830186614305565b61460b604083018561390d565b614618606083018461390d565b95945050505050565b6000602082019050818103600083015261463b8184613933565b905092915050565b6000602082019050818103600083015261465d818461399d565b905092915050565b6000602082019050818103600083015261467e81613a07565b9050919050565b6000602082019050818103600083015261469e81613a6d565b9050919050565b600060208201905081810360008301526146be81613ad3565b9050919050565b600060208201905081810360008301526146de81613b13565b9050919050565b600060208201905081810360008301526146fe81613b79565b9050919050565b6000602082019050818103600083015261471e81613bf9565b9050919050565b6000602082019050818103600083015261473e81613c5f565b9050919050565b6000602082019050818103600083015261475e81613cc5565b9050919050565b6000602082019050818103600083015261477e81613d2b565b9050919050565b6000602082019050818103600083015261479e81613d91565b9050919050565b600060208201905081810360008301526147be81613dd1565b9050919050565b600060208201905081810360008301526147de81613e37565b9050919050565b600060208201905081810360008301526147fe81613e9d565b9050919050565b6000602082019050818103600083015261481e81613f03565b9050919050565b6000602082019050818103600083015261483e81613f69565b9050919050565b6000602082019050818103600083015261485e81613fcf565b9050919050565b6000602082019050818103600083015261487e8161400f565b9050919050565b6000602082019050818103600083015261489e81614075565b9050919050565b600060208201905081810360008301526148be816140cf565b9050919050565b600060208201905081810360008301526148de8161410f565b9050919050565b600060208201905081810360008301526148fe8161414f565b9050919050565b6000602082019050818103600083015261491e816141b5565b9050919050565b6000602082019050818103600083015261493e8161421b565b9050919050565b6000602082019050818103600083015261495e81614281565b9050919050565b600060208201905061497a60008301846142f6565b92915050565b600060408201905061499560008301856142f6565b6149a260208301846142f6565b9392505050565b6000604051905081810181811067ffffffffffffffff821117156149d0576149cf614db5565b5b8060405250919050565b600067ffffffffffffffff8211156149f5576149f4614db5565b5b602082029050602081019050919050565b600067ffffffffffffffff821115614a2157614a20614db5565b5b602082029050602081019050919050565b600067ffffffffffffffff821115614a4d57614a4c614db5565b5b602082029050602081019050919050565b600067ffffffffffffffff821115614a7957614a78614db5565b5b601f19601f8301169050602081019050919050565b600067ffffffffffffffff821115614aa957614aa8614db5565b5b601f19601f8301169050602081019050919050565b6000819050602082019050919050565b600081519050919050565b600081519050919050565b600081519050919050565b6000602082019050919050565b600082825260208201905092915050565b600082825260208201905092915050565b600081905092915050565b600082825260208201905092915050565b600081905092915050565b6000614b5082614c55565b9150614b5b83614c55565b9250827fffffffffffffffffffffffffffffffffffffffffffffffffffffffffffffffff03821115614b9057614b8f614d57565b5b828201905092915050565b6000614ba682614c55565b9150614bb183614c55565b925082821015614bc457614bc3614d57565b5b828203905092915050565b6000614bda82614c35565b9050919050565b6000614bec82614c35565b9050919050565b60008115159050919050565b6000819050919050565b60007fffffffff0000000000000000000000000000000000000000000000000000000082169050919050565b600073ffffffffffffffffffffffffffffffffffffffff82169050919050565b6000819050919050565b600060ff82169050919050565b82818337600083830152505050565b60005b83811015614c99578082015181840152602081019050614c7e565b83811115614ca8576000848401525b50505050565b60006002820490506001821680614cc657607f821691505b60208210811415614cda57614cd9614d86565b5b50919050565b6000614ceb82614c55565b91507fffffffffffffffffffffffffffffffffffffffffffffffffffffffffffffffff821415614d1e57614d1d614d57565b5b600182019050919050565b6000614d3482614d45565b9050919050565b6000819050919050565b6000614d5082614df5565b9050919050565b7f4e487b7100000000000000000000000000000000000000000000000000000000600052601160045260246000fd5b7f4e487b7100000000000000000000000000000000000000000000000000000000600052602260045260246000fd5b7f4e487b7100000000000000000000000000000000000000000000000000000000600052604160045260246000fd5b6000601f19601f8301169050919050565b60008160601b9050919050565b60008160e01c9050919050565b600060443d1015614e1f57614ec2565b60046000803e614e30600051614e02565b6308c379a08114614e415750614ec2565b60405160043d036004823e80513d602482011167ffffffffffffffff82111715614e6d57505050614ec2565b808201805167ffffffffffffffff811115614e8c575050505050614ec2565b8060208301013d8501811115614ea757505050505050614ec2565b614eb082614de4565b60208401016040528296505050505050505b90565b614ece81614bcf565b8114614ed957600080fd5b50565b614ee581614bf3565b8114614ef057600080fd5b50565b614efc81614bff565b8114614f0757600080fd5b50565b614f1381614c09565b8114614f1e57600080fd5b50565b614f2a81614c55565b8114614f3557600080fd5b50565b614f4181614c5f565b8114614f4c57600080fd5b5056fe4d6574615472616e73616374696f6e2875696e74323536206e6f6e63652c616464726573732066726f6d2c62797465732066756e6374696f6e5369676e617475726529a2646970667358221220748cf483ec6f167d5b397582a93c403a9769a2bf6730977b172b373d0aa3a56564736f6c63430008000033454950373132446f6d61696e28737472696e67206e616d652c737472696e672076657273696f6e2c6164647265737320766572696679696e67436f6e74726163742c627974657333322073616c7429",
  "linkReferences": {},
  "deployedLinkReferences": {}
}