{
  "_format": "hh-sol-artifact-1",
  "contractName": "DAO",
  "sourceName": "contracts/DAO.sol",
  "abi": [
    {
      "inputs": [
        {
          "internalType": "string",
          "name": "name_",
          "type": "string"
        }
      ],
      "stateMutability": "nonpayable",
      "type": "constructor"
    },
    {
      "anonymous": false,
      "inputs": [
        {
          "indexed": true,
          "internalType": "address",
          "name": "account",
          "type": "address"
        },
        {
          "indexed": true,
          "internalType": "address",
          "name": "operator",
          "type": "address"
        },
        {
          "indexed": false,
          "internalType": "bool",
          "name": "approved",
          "type": "bool"
        }
      ],
      "name": "ApprovalForAll",
      "type": "event"
    },
    {
      "anonymous": false,
      "inputs": [
        {
          "indexed": false,
          "internalType": "address",
          "name": "userAddress",
          "type": "address"
        },
        {
          "indexed": false,
          "internalType": "address payable",
          "name": "relayerAddress",
          "type": "address"
        },
        {
          "indexed": false,
          "internalType": "bytes",
          "name": "functionSignature",
          "type": "bytes"
        }
      ],
      "name": "MetaTransactionExecuted",
      "type": "event"
    },
    {
      "anonymous": false,
      "inputs": [
        {
          "indexed": true,
          "internalType": "address",
          "name": "operator",
          "type": "address"
        },
        {
          "indexed": true,
          "internalType": "address",
          "name": "from",
          "type": "address"
        },
        {
          "indexed": true,
          "internalType": "address",
          "name": "to",
          "type": "address"
        },
        {
          "indexed": false,
          "internalType": "uint256[]",
          "name": "ids",
          "type": "uint256[]"
        },
        {
          "indexed": false,
          "internalType": "uint256[]",
          "name": "values",
          "type": "uint256[]"
        }
      ],
      "name": "TransferBatch",
      "type": "event"
    },
    {
      "anonymous": false,
      "inputs": [
        {
          "indexed": true,
          "internalType": "address",
          "name": "operator",
          "type": "address"
        },
        {
          "indexed": true,
          "internalType": "address",
          "name": "from",
          "type": "address"
        },
        {
          "indexed": true,
          "internalType": "address",
          "name": "to",
          "type": "address"
        },
        {
          "indexed": false,
          "internalType": "uint256",
          "name": "id",
          "type": "uint256"
        },
        {
          "indexed": false,
          "internalType": "uint256",
          "name": "value",
          "type": "uint256"
        }
      ],
      "name": "TransferSingle",
      "type": "event"
    },
    {
      "anonymous": false,
      "inputs": [
        {
          "indexed": false,
          "internalType": "string",
          "name": "value",
          "type": "string"
        },
        {
          "indexed": true,
          "internalType": "uint256",
          "name": "id",
          "type": "uint256"
        }
      ],
      "name": "URI",
      "type": "event"
    },
    {
      "anonymous": false,
      "inputs": [
        {
          "indexed": false,
          "internalType": "address",
          "name": "newOwner",
          "type": "address"
        }
      ],
      "name": "contractSaleEvent",
      "type": "event"
    },
    {
      "inputs": [],
      "name": "ERC712_VERSION",
      "outputs": [
        {
          "internalType": "string",
          "name": "",
          "type": "string"
        }
      ],
      "stateMutability": "view",
      "type": "function"
    },
    {
      "inputs": [
        {
          "internalType": "string[]",
          "name": "newTokens",
          "type": "string[]"
        }
      ],
      "name": "addNewTokenIDs",
      "outputs": [],
      "stateMutability": "nonpayable",
      "type": "function"
    },
    {
      "inputs": [
        {
          "internalType": "address[]",
          "name": "newOwners",
          "type": "address[]"
        }
      ],
      "name": "addOwners",
      "outputs": [],
      "stateMutability": "nonpayable",
      "type": "function"
    },
    {
      "inputs": [
        {
          "internalType": "address",
          "name": "account",
          "type": "address"
        },
        {
          "internalType": "uint256",
          "name": "id",
          "type": "uint256"
        }
      ],
      "name": "balanceOf",
      "outputs": [
        {
          "internalType": "uint256",
          "name": "",
          "type": "uint256"
        }
      ],
      "stateMutability": "view",
      "type": "function"
    },
    {
      "inputs": [
        {
          "internalType": "address[]",
          "name": "accounts",
          "type": "address[]"
        },
        {
          "internalType": "uint256[]",
          "name": "ids",
          "type": "uint256[]"
        }
      ],
      "name": "balanceOfBatch",
      "outputs": [
        {
          "internalType": "uint256[]",
          "name": "",
          "type": "uint256[]"
        }
      ],
      "stateMutability": "view",
      "type": "function"
    },
    {
      "inputs": [
        {
          "internalType": "string",
          "name": "newOwnerName",
          "type": "string"
        },
        {
          "internalType": "string",
          "name": "newDaoName",
          "type": "string"
        }
      ],
      "name": "buyOwnership",
      "outputs": [],
      "stateMutability": "payable",
      "type": "function"
    },
    {
      "inputs": [],
      "name": "contractSold",
      "outputs": [
        {
          "internalType": "bool",
          "name": "",
          "type": "bool"
        }
      ],
      "stateMutability": "view",
      "type": "function"
    },
    {
      "inputs": [
        {
          "internalType": "address",
          "name": "userAddress",
          "type": "address"
        },
        {
          "internalType": "bytes",
          "name": "functionSignature",
          "type": "bytes"
        },
        {
          "internalType": "bytes32",
          "name": "sigR",
          "type": "bytes32"
        },
        {
          "internalType": "bytes32",
          "name": "sigS",
          "type": "bytes32"
        },
        {
          "internalType": "uint8",
          "name": "sigV",
          "type": "uint8"
        }
      ],
      "name": "executeMetaTransaction",
      "outputs": [
        {
          "internalType": "bytes",
          "name": "",
          "type": "bytes"
        }
      ],
      "stateMutability": "payable",
      "type": "function"
    },
    {
      "inputs": [],
      "name": "getChainId",
      "outputs": [
        {
          "internalType": "uint256",
          "name": "",
          "type": "uint256"
        }
      ],
      "stateMutability": "view",
      "type": "function"
    },
    {
      "inputs": [],
      "name": "getDomainSeperator",
      "outputs": [
        {
          "internalType": "bytes32",
          "name": "",
          "type": "bytes32"
        }
      ],
      "stateMutability": "view",
      "type": "function"
    },
    {
      "inputs": [
        {
          "internalType": "address",
          "name": "user",
          "type": "address"
        }
      ],
      "name": "getNonce",
      "outputs": [
        {
          "internalType": "uint256",
          "name": "nonce",
          "type": "uint256"
        }
      ],
      "stateMutability": "view",
      "type": "function"
    },
    {
      "inputs": [
        {
          "internalType": "uint256",
          "name": "",
          "type": "uint256"
        },
        {
          "internalType": "address",
          "name": "",
          "type": "address"
        }
      ],
      "name": "hasVoted",
      "outputs": [
        {
          "internalType": "bool",
          "name": "",
          "type": "bool"
        }
      ],
      "stateMutability": "view",
      "type": "function"
    },
    {
      "inputs": [
        {
          "internalType": "address",
          "name": "_owner",
          "type": "address"
        },
        {
          "internalType": "address",
          "name": "_operator",
          "type": "address"
        }
      ],
      "name": "isApprovedForAll",
      "outputs": [
        {
          "internalType": "bool",
          "name": "isOperator",
          "type": "bool"
        }
      ],
      "stateMutability": "view",
      "type": "function"
    },
    {
      "inputs": [
        {
          "internalType": "address",
          "name": "",
          "type": "address"
        }
      ],
      "name": "isOwner",
      "outputs": [
        {
          "internalType": "bool",
          "name": "",
          "type": "bool"
        }
      ],
      "stateMutability": "view",
      "type": "function"
    },
    {
      "inputs": [],
      "name": "name",
      "outputs": [
        {
          "internalType": "string",
          "name": "",
          "type": "string"
        }
      ],
      "stateMutability": "view",
      "type": "function"
    },
    {
      "inputs": [
        {
          "internalType": "bytes32",
          "name": "newName",
          "type": "bytes32"
        }
      ],
      "name": "newProposal",
      "outputs": [],
      "stateMutability": "nonpayable",
      "type": "function"
    },
    {
      "inputs": [
        {
          "internalType": "uint256",
          "name": "index",
          "type": "uint256"
        }
      ],
      "name": "newVote",
      "outputs": [],
      "stateMutability": "nonpayable",
      "type": "function"
    },
    {
      "inputs": [],
      "name": "originalSeller",
      "outputs": [
        {
          "internalType": "address",
          "name": "",
          "type": "address"
        }
      ],
      "stateMutability": "view",
      "type": "function"
    },
    {
      "inputs": [],
      "name": "ownerName",
      "outputs": [
        {
          "internalType": "string",
          "name": "",
          "type": "string"
        }
      ],
      "stateMutability": "view",
      "type": "function"
    },
    {
      "inputs": [
        {
          "internalType": "uint256",
          "name": "",
          "type": "uint256"
        }
      ],
      "name": "owners",
      "outputs": [
        {
          "internalType": "address",
          "name": "",
          "type": "address"
        }
      ],
      "stateMutability": "view",
      "type": "function"
    },
    {
      "inputs": [
        {
          "internalType": "uint256",
          "name": "",
          "type": "uint256"
        }
      ],
      "name": "proposals",
      "outputs": [
        {
          "internalType": "bytes32",
          "name": "name",
          "type": "bytes32"
        },
        {
          "internalType": "uint256",
          "name": "voteCount",
          "type": "uint256"
        }
      ],
      "stateMutability": "view",
      "type": "function"
    },
    {
      "inputs": [
        {
          "internalType": "address",
          "name": "from",
          "type": "address"
        },
        {
          "internalType": "address",
          "name": "to",
          "type": "address"
        },
        {
          "internalType": "uint256[]",
          "name": "ids",
          "type": "uint256[]"
        },
        {
          "internalType": "uint256[]",
          "name": "amounts",
          "type": "uint256[]"
        },
        {
          "internalType": "bytes",
          "name": "data",
          "type": "bytes"
        }
      ],
      "name": "safeBatchTransferFrom",
      "outputs": [],
      "stateMutability": "nonpayable",
      "type": "function"
    },
    {
      "inputs": [
        {
          "internalType": "address",
          "name": "from",
          "type": "address"
        },
        {
          "internalType": "address",
          "name": "to",
          "type": "address"
        },
        {
          "internalType": "uint256",
          "name": "id",
          "type": "uint256"
        },
        {
          "internalType": "uint256",
          "name": "amount",
          "type": "uint256"
        },
        {
          "internalType": "bytes",
          "name": "data",
          "type": "bytes"
        }
      ],
      "name": "safeTransferFrom",
      "outputs": [],
      "stateMutability": "nonpayable",
      "type": "function"
    },
    {
      "inputs": [],
      "name": "salePrice",
      "outputs": [
        {
          "internalType": "uint256",
          "name": "",
          "type": "uint256"
        }
      ],
      "stateMutability": "view",
      "type": "function"
    },
    {
      "inputs": [
        {
          "internalType": "address",
          "name": "operator",
          "type": "address"
        },
        {
          "internalType": "bool",
          "name": "approved",
          "type": "bool"
        }
      ],
      "name": "setApprovalForAll",
      "outputs": [],
      "stateMutability": "nonpayable",
      "type": "function"
    },
    {
      "inputs": [
        {
          "internalType": "string",
          "name": "newURI",
          "type": "string"
        }
      ],
      "name": "setBaseURI",
      "outputs": [],
      "stateMutability": "nonpayable",
      "type": "function"
    },
    {
      "inputs": [
        {
          "internalType": "bytes4",
          "name": "interfaceId",
          "type": "bytes4"
        }
      ],
      "name": "supportsInterface",
      "outputs": [
        {
          "internalType": "bool",
          "name": "",
          "type": "bool"
        }
      ],
      "stateMutability": "view",
      "type": "function"
    },
    {
      "inputs": [
        {
          "internalType": "uint256",
          "name": "",
          "type": "uint256"
        }
      ],
      "name": "tokenIdArray",
      "outputs": [
        {
          "internalType": "uint256",
          "name": "",
          "type": "uint256"
        }
      ],
      "stateMutability": "view",
      "type": "function"
    },
    {
      "inputs": [
        {
          "internalType": "string",
          "name": "",
          "type": "string"
        }
      ],
      "name": "tokenIdMapping",
      "outputs": [
        {
          "internalType": "uint256",
          "name": "",
          "type": "uint256"
        }
      ],
      "stateMutability": "view",
      "type": "function"
    },
    {
      "inputs": [
        {
          "internalType": "uint256",
          "name": "",
          "type": "uint256"
        }
      ],
      "name": "uri",
      "outputs": [
        {
          "internalType": "string",
          "name": "",
          "type": "string"
        }
      ],
      "stateMutability": "view",
      "type": "function"
    },
    {
      "inputs": [],
      "name": "withdraw",
      "outputs": [],
      "stateMutability": "payable",
      "type": "function"
    }
  ],
  "bytecode": "0x60806040526000600360006101000a81548160ff0219169083151502179055503480156200002c57600080fd5b50604051620053f2380380620053f283398181016040528101906200005291906200033c565b604051806020016040528060008152506200007381620000c060201b60201c565b506000600660006101000a81548160ff0219169083151502179055508060079080519060200190620000a79291906200021a565b50620000b981620000dc60201b60201c565b50620005e4565b8060029080519060200190620000d89291906200021a565b5050565b600360009054906101000a900460ff16156200012f576040517f08c379a0000000000000000000000000000000000000000000000000000000008152600401620001269062000442565b60405180910390fd5b62000140816200015e60201b60201c565b6001600360006101000a81548160ff02191690831515021790555050565b6040518060800160405280604f8152602001620053a3604f91398051906020012081805190602001206040518060400160405280600181526020017f31000000000000000000000000000000000000000000000000000000000000008152508051906020012030620001d56200020d60201b60201c565b60001b604051602001620001ee959493929190620003e5565b6040516020818303038152906040528051906020012060048190555050565b6000804690508091505090565b828054620002289062000550565b90600052602060002090601f0160209004810192826200024c576000855562000298565b82601f106200026757805160ff191683800117855562000298565b8280016001018555821562000298579182015b82811115620002975782518255916020019190600101906200027a565b5b509050620002a79190620002ab565b5090565b5b80821115620002c6576000816000905550600101620002ac565b5090565b6000620002e1620002db8462000498565b62000464565b905082815260208101848484011115620002fa57600080fd5b620003078482856200051a565b509392505050565b600082601f8301126200032157600080fd5b815162000333848260208601620002ca565b91505092915050565b6000602082840312156200034f57600080fd5b600082015167ffffffffffffffff8111156200036a57600080fd5b62000378848285016200030f565b91505092915050565b6200038c81620004dc565b82525050565b6200039d81620004f0565b82525050565b6000620003b2600e83620004cb565b91507f616c726561647920696e697465640000000000000000000000000000000000006000830152602082019050919050565b600060a082019050620003fc600083018862000392565b6200040b602083018762000392565b6200041a604083018662000392565b62000429606083018562000381565b62000438608083018462000392565b9695505050505050565b600060208201905081810360008301526200045d81620003a3565b9050919050565b6000604051905081810181811067ffffffffffffffff821117156200048e576200048d620005b5565b5b8060405250919050565b600067ffffffffffffffff821115620004b657620004b5620005b5565b5b601f19601f8301169050602081019050919050565b600082825260208201905092915050565b6000620004e982620004fa565b9050919050565b6000819050919050565b600073ffffffffffffffffffffffffffffffffffffffff82169050919050565b60005b838110156200053a5780820151818401526020810190506200051d565b838111156200054a576000848401525b50505050565b600060028204905060018216806200056957607f821691505b6020821081141562000580576200057f62000586565b5b50919050565b7f4e487b7100000000000000000000000000000000000000000000000000000000600052602260045260246000fd5b7f4e487b7100000000000000000000000000000000000000000000000000000000600052604160045260246000fd5b614daf80620005f46000396000f3fe6080604052600436106101d75760003560e01c80634bee584411610102578063af4055f611610095578063e985e9c511610064578063e985e9c5146106f5578063f242432a14610732578063f51f96dd1461075b578063fb4f29c814610786576101d7565b8063af4055f614610634578063b88eabdd1461065f578063bb22ff1b1461069c578063c460a44d146106d9576101d7565b80636c46a2c5116100d15780636c46a2c5146105905780638f9f1030146105b9578063a22cb465146105e2578063ac50af5f1461060b576101d7565b80634bee5844146104d45780634e1273f4146104ff57806355f804b31461053c57806365ac232014610565576101d7565b80630f7e59701161017a5780632f54bf6e116101495780632f54bf6e146104255780633408e470146104625780633ccfd60b1461048d5780634385963214610497576101d7565b80630f7e59701461036957806320379ee5146103945780632d0335ab146103bf5780632eb2c2d6146103fc576101d7565b8063025e7c27116101b6578063025e7c271461029457806306fdde03146102d15780630c53c51c146102fc5780630e89341c1461032c576101d7565b8062fdd58e146101dc578063013cf08b1461021957806301ffc9a714610257575b600080fd5b3480156101e857600080fd5b5061020360048036038101906101fe9190613391565b6107af565b604051610210919061474c565b60405180910390f35b34801561022557600080fd5b50610240600480360381019061023b91906135e3565b610878565b60405161024e929190614355565b60405180910390f35b34801561026357600080fd5b5061027e600480360381019061027991906134e4565b6108ac565b60405161028b919061431f565b60405180910390f35b3480156102a057600080fd5b506102bb60048036038101906102b691906135e3565b61098e565b6040516102c891906141ab565b60405180910390f35b3480156102dd57600080fd5b506102e66109cd565b6040516102f3919061442a565b60405180910390f35b61031660048036038101906103119190613302565b610a5b565b6040516103239190614408565b60405180910390f35b34801561033857600080fd5b50610353600480360381019061034e91906135e3565b610cc6565b604051610360919061442a565b60405180910390f35b34801561037557600080fd5b5061037e610d5a565b60405161038b919061442a565b60405180910390f35b3480156103a057600080fd5b506103a9610d93565b6040516103b6919061433a565b60405180910390f35b3480156103cb57600080fd5b506103e660048036038101906103e19190613113565b610d9d565b6040516103f3919061474c565b60405180910390f35b34801561040857600080fd5b50610423600480360381019061041e9190613178565b610de6565b005b34801561043157600080fd5b5061044c60048036038101906104479190613113565b6111dc565b604051610459919061431f565b60405180910390f35b34801561046e57600080fd5b506104776111fc565b604051610484919061474c565b60405180910390f35b610495611209565b005b3480156104a357600080fd5b506104be60048036038101906104b9919061360c565b611383565b6040516104cb919061431f565b60405180910390f35b3480156104e057600080fd5b506104e96113b2565b6040516104f691906141ab565b60405180910390f35b34801561050b57600080fd5b506105266004803603810190610521919061340e565b6113ca565b60405161053391906142c6565b60405180910390f35b34801561054857600080fd5b50610563600480360381019061055e9190613536565b61157b565b005b34801561057157600080fd5b5061057a61161d565b604051610587919061442a565b60405180910390f35b34801561059c57600080fd5b506105b760048036038101906105b291906133cd565b6116ab565b005b3480156105c557600080fd5b506105e060048036038101906105db919061347a565b611962565b005b3480156105ee57600080fd5b50610609600480360381019061060491906132c6565b611aec565b005b34801561061757600080fd5b50610632600480360381019061062d91906134bb565b611c6d565b005b34801561064057600080fd5b50610649611d5d565b604051610656919061431f565b60405180910390f35b34801561066b57600080fd5b5061068660048036038101906106819190613536565b611d70565b604051610693919061474c565b60405180910390f35b3480156106a857600080fd5b506106c360048036038101906106be91906135e3565b611d9e565b6040516106d0919061474c565b60405180910390f35b6106f360048036038101906106ee9190613577565b611dc2565b005b34801561070157600080fd5b5061071c6004803603810190610717919061313c565b61200e565b604051610729919061431f565b60405180910390f35b34801561073e57600080fd5b5061075960048036038101906107549190613237565b612074565b005b34801561076757600080fd5b5061077061238c565b60405161077d919061474c565b60405180910390f35b34801561079257600080fd5b506107ad60048036038101906107a891906135e3565b612398565b005b60008073ffffffffffffffffffffffffffffffffffffffff168373ffffffffffffffffffffffffffffffffffffffff161415610820576040517f08c379a0000000000000000000000000000000000000000000000000000000008152600401610817906144ac565b60405180910390fd5b60008083815260200190815260200160002060008473ffffffffffffffffffffffffffffffffffffffff1673ffffffffffffffffffffffffffffffffffffffff16815260200190815260200160002054905092915050565b600e818154811061088857600080fd5b90600052602060002090600202016000915090508060000154908060010154905082565b60007fd9b67a26000000000000000000000000000000000000000000000000000000007bffffffffffffffffffffffffffffffffffffffffffffffffffffffff1916827bffffffffffffffffffffffffffffffffffffffffffffffffffffffff1916148061097757507f0e89341c000000000000000000000000000000000000000000000000000000007bffffffffffffffffffffffffffffffffffffffffffffffffffffffff1916827bffffffffffffffffffffffffffffffffffffffffffffffffffffffff1916145b80610987575061098682612557565b5b9050919050565b600c818154811061099e57600080fd5b906000526020600020016000915054906101000a900473ffffffffffffffffffffffffffffffffffffffff1681565b600780546109da90614a95565b80601f0160208091040260200160405190810160405280929190818152602001828054610a0690614a95565b8015610a535780601f10610a2857610100808354040283529160200191610a53565b820191906000526020600020905b815481529060010190602001808311610a3657829003601f168201915b505050505081565b606060006040518060600160405280600560008a73ffffffffffffffffffffffffffffffffffffffff1673ffffffffffffffffffffffffffffffffffffffff1681526020019081526020016000205481526020018873ffffffffffffffffffffffffffffffffffffffff168152602001878152509050610ade87828787876125c1565b610b1d576040517f08c379a0000000000000000000000000000000000000000000000000000000008152600401610b149061464c565b60405180910390fd5b6001600560008973ffffffffffffffffffffffffffffffffffffffff1673ffffffffffffffffffffffffffffffffffffffff16815260200190815260200160002054610b69919061492c565b600560008973ffffffffffffffffffffffffffffffffffffffff1673ffffffffffffffffffffffffffffffffffffffff168152602001908152602001600020819055507f5845892132946850460bff5a0083f71031bc5bf9aadcd40f1de79423eac9b10b873388604051610bdf939291906141c6565b60405180910390a16000803073ffffffffffffffffffffffffffffffffffffffff16888a604051602001610c14929190614120565b604051602081830303815290604052604051610c309190614109565b6000604051808303816000865af19150503d8060008114610c6d576040519150601f19603f3d011682016040523d82523d6000602084013e610c72565b606091505b509150915081610cb7576040517f08c379a0000000000000000000000000000000000000000000000000000000008152600401610cae906144cc565b60405180910390fd5b80935050505095945050505050565b606060028054610cd590614a95565b80601f0160208091040260200160405190810160405280929190818152602001828054610d0190614a95565b8015610d4e5780601f10610d2357610100808354040283529160200191610d4e565b820191906000526020600020905b815481529060010190602001808311610d3157829003601f168201915b50505050509050919050565b6040518060400160405280600181526020017f310000000000000000000000000000000000000000000000000000000000000081525081565b6000600454905090565b6000600560008373ffffffffffffffffffffffffffffffffffffffff1673ffffffffffffffffffffffffffffffffffffffff168152602001908152602001600020549050919050565b8151835114610e2a576040517f08c379a0000000000000000000000000000000000000000000000000000000008152600401610e219061470c565b60405180910390fd5b600073ffffffffffffffffffffffffffffffffffffffff168473ffffffffffffffffffffffffffffffffffffffff161415610e9a576040517f08c379a0000000000000000000000000000000000000000000000000000000008152600401610e91906145ac565b60405180910390fd5b610ea26126ca565b73ffffffffffffffffffffffffffffffffffffffff168573ffffffffffffffffffffffffffffffffffffffff161480610ee85750610ee785610ee26126ca565b61200e565b5b610f27576040517f08c379a0000000000000000000000000000000000000000000000000000000008152600401610f1e906145cc565b60405180910390fd5b6000610f316126ca565b9050610f418187878787876126d9565b60005b8451811015611147576000858281518110610f88577f4e487b7100000000000000000000000000000000000000000000000000000000600052603260045260246000fd5b602002602001015190506000858381518110610fcd577f4e487b7100000000000000000000000000000000000000000000000000000000600052603260045260246000fd5b60200260200101519050600080600084815260200190815260200160002060008b73ffffffffffffffffffffffffffffffffffffffff1673ffffffffffffffffffffffffffffffffffffffff1681526020019081526020016000205490508181101561106e576040517f08c379a00000000000000000000000000000000000000000000000000000000081526004016110659061460c565b60405180910390fd5b818161107a9190614982565b60008085815260200190815260200160002060008c73ffffffffffffffffffffffffffffffffffffffff1673ffffffffffffffffffffffffffffffffffffffff168152602001908152602001600020819055508160008085815260200190815260200160002060008b73ffffffffffffffffffffffffffffffffffffffff1673ffffffffffffffffffffffffffffffffffffffff168152602001908152602001600020600082825461112c919061492c565b925050819055505050508061114090614ac7565b9050610f44565b508473ffffffffffffffffffffffffffffffffffffffff168673ffffffffffffffffffffffffffffffffffffffff168273ffffffffffffffffffffffffffffffffffffffff167f4a39dc06d4c0dbc64b70af90fd698a233a518aa5d07e595d983b8c0526c8f7fb87876040516111be9291906142e8565b60405180910390a46111d48187878787876126e1565b505050505050565b600b6020528060005260406000206000915054906101000a900460ff1681565b6000804690508091505090565b735f4c3843495babe89cb3516cebd8840024e741fa73ffffffffffffffffffffffffffffffffffffffff163373ffffffffffffffffffffffffffffffffffffffff161461128b576040517f08c379a00000000000000000000000000000000000000000000000000000000081526004016112829061466c565b60405180910390fd5b6000479050600081116112d3576040517f08c379a00000000000000000000000000000000000000000000000000000000081526004016112ca9061462c565b60405180910390fd5b60003373ffffffffffffffffffffffffffffffffffffffff16826040516112f990614196565b60006040518083038185875af1925050503d8060008114611336576040519150601f19603f3d011682016040523d82523d6000602084013e61133b565b606091505b505090508061137f576040517f08c379a00000000000000000000000000000000000000000000000000000000081526004016113769061468c565b60405180910390fd5b5050565b600d6020528160005260406000206020528060005260406000206000915091509054906101000a900460ff1681565b735f4c3843495babe89cb3516cebd8840024e741fa81565b60608151835114611410576040517f08c379a0000000000000000000000000000000000000000000000000000000008152600401611407906146ec565b60405180910390fd5b6000835167ffffffffffffffff811115611453577f4e487b7100000000000000000000000000000000000000000000000000000000600052604160045260246000fd5b6040519080825280602002602001820160405280156114815781602001602082028036833780820191505090505b50905060005b84518110156115705761151a8582815181106114cc577f4e487b7100000000000000000000000000000000000000000000000000000000600052603260045260246000fd5b602002602001015185838151811061150d577f4e487b7100000000000000000000000000000000000000000000000000000000600052603260045260246000fd5b60200260200101516107af565b828281518110611553577f4e487b7100000000000000000000000000000000000000000000000000000000600052603260045260246000fd5b6020026020010181815250508061156990614ac7565b9050611487565b508091505092915050565b6001600b60003373ffffffffffffffffffffffffffffffffffffffff1673ffffffffffffffffffffffffffffffffffffffff16815260200190815260200160002060006101000a81548160ff0219169083151502179055611611576040517f08c379a0000000000000000000000000000000000000000000000000000000008152600401611608906145ec565b60405180910390fd5b61161a816128b1565b50565b6008805461162a90614a95565b80601f016020809104026020016040519081016040528092919081815260200182805461165690614a95565b80156116a35780601f10611678576101008083540402835291602001916116a3565b820191906000526020600020905b81548152906001019060200180831161168657829003601f168201915b505050505081565b6001600b60003373ffffffffffffffffffffffffffffffffffffffff1673ffffffffffffffffffffffffffffffffffffffff16815260200190815260200160002060006101000a81548160ff0219169083151502179055611741576040517f08c379a0000000000000000000000000000000000000000000000000000000008152600401611738906145ec565b60405180910390fd5b60005b815181101561195e576000828281518110611788577f4e487b7100000000000000000000000000000000000000000000000000000000600052603260045260246000fd5b60200260200101519050600073ffffffffffffffffffffffffffffffffffffffff168173ffffffffffffffffffffffffffffffffffffffff161415611802576040517f08c379a00000000000000000000000000000000000000000000000000000000081526004016117f99061472c565b60405180910390fd5b600b60008273ffffffffffffffffffffffffffffffffffffffff1673ffffffffffffffffffffffffffffffffffffffff16815260200190815260200160002060009054906101000a900460ff161561188f576040517f08c379a00000000000000000000000000000000000000000000000000000000081526004016118869061448c565b60405180910390fd5b6001600b60008373ffffffffffffffffffffffffffffffffffffffff1673ffffffffffffffffffffffffffffffffffffffff16815260200190815260200160002060006101000a81548160ff021916908315150217905550600c819080600181540180825580915050600190039060005260206000200160009091909190916101000a81548173ffffffffffffffffffffffffffffffffffffffff021916908373ffffffffffffffffffffffffffffffffffffffff16021790555050808061195690614ac7565b915050611744565b5050565b6001600b60003373ffffffffffffffffffffffffffffffffffffffff1673ffffffffffffffffffffffffffffffffffffffff16815260200190815260200160002060006101000a81548160ff02191690831515021790556119f8576040517f08c379a00000000000000000000000000000000000000000000000000000000081526004016119ef906145ec565b60405180910390fd5b600181511015611a3d576040517f08c379a0000000000000000000000000000000000000000000000000000000008152600401611a349061456c565b60405180910390fd5b60005b8151811015611ae857806009838381518110611a85577f4e487b7100000000000000000000000000000000000000000000000000000000600052603260045260246000fd5b6020026020010151604051611a9a9190614148565b908152602001604051809103902081905550600a8190806001815401808255809150506001900390600052602060002001600090919091909150558080611ae090614ac7565b915050611a40565b5050565b8173ffffffffffffffffffffffffffffffffffffffff16611b0b6126ca565b73ffffffffffffffffffffffffffffffffffffffff161415611b62576040517f08c379a0000000000000000000000000000000000000000000000000000000008152600401611b59906146cc565b60405180910390fd5b8060016000611b6f6126ca565b73ffffffffffffffffffffffffffffffffffffffff1673ffffffffffffffffffffffffffffffffffffffff16815260200190815260200160002060008473ffffffffffffffffffffffffffffffffffffffff1673ffffffffffffffffffffffffffffffffffffffff16815260200190815260200160002060006101000a81548160ff0219169083151502179055508173ffffffffffffffffffffffffffffffffffffffff16611c1c6126ca565b73ffffffffffffffffffffffffffffffffffffffff167f17307eab39ab6107e8899845ad3d59bd9653f200f220920489ca2b5937696c3183604051611c61919061431f565b60405180910390a35050565b6001600b60003373ffffffffffffffffffffffffffffffffffffffff1673ffffffffffffffffffffffffffffffffffffffff16815260200190815260200160002060006101000a81548160ff0219169083151502179055611d03576040517f08c379a0000000000000000000000000000000000000000000000000000000008152600401611cfa906145ec565b60405180910390fd5b600e6040518060400160405280838152602001600081525090806001815401808255809150506001900390600052602060002090600202016000909190919091506000820151816000015560208201518160010155505050565b600660009054906101000a900460ff1681565b6009818051602081018201805184825260208301602085012081835280955050505050506000915090505481565b600a8181548110611dae57600080fd5b906000526020600020016000915090505481565b67016345785d8a0000341015611e0d576040517f08c379a0000000000000000000000000000000000000000000000000000000008152600401611e04906146ac565b60405180910390fd5b60001515600660009054906101000a900460ff16151514611e63576040517f08c379a0000000000000000000000000000000000000000000000000000000008152600401611e5a9061452c565b60405180910390fd5b6000600b6000735f4c3843495babe89cb3516cebd8840024e741fa73ffffffffffffffffffffffffffffffffffffffff1673ffffffffffffffffffffffffffffffffffffffff16815260200190815260200160002060006101000a81548160ff0219169083151502179055506001600b60003373ffffffffffffffffffffffffffffffffffffffff1673ffffffffffffffffffffffffffffffffffffffff16815260200190815260200160002060006101000a81548160ff021916908315150217905550600c339080600181540180825580915050600190039060005260206000200160009091909190916101000a81548173ffffffffffffffffffffffffffffffffffffffff021916908373ffffffffffffffffffffffffffffffffffffffff1602179055506001600660006101000a81548160ff0219169083151502179055508160089080519060200190611fbb929190612d5a565b508060079080519060200190611fd2929190612d5a565b507fd5b279c14917904ca8e198de8bc44a67edf9ee173f25b014d5f0869f6d47f74b3360405161200291906141ab565b60405180910390a15050565b600073207fa8df3a17d96ca7ea4f2893fcdcb78a30410173ffffffffffffffffffffffffffffffffffffffff168273ffffffffffffffffffffffffffffffffffffffff161415612061576001905061206e565b61206b83836128cb565b90505b92915050565b600073ffffffffffffffffffffffffffffffffffffffff168473ffffffffffffffffffffffffffffffffffffffff1614156120e4576040517f08c379a00000000000000000000000000000000000000000000000000000000081526004016120db906145ac565b60405180910390fd5b6120ec6126ca565b73ffffffffffffffffffffffffffffffffffffffff168573ffffffffffffffffffffffffffffffffffffffff16148061213257506121318561212c6126ca565b61200e565b5b612171576040517f08c379a00000000000000000000000000000000000000000000000000000000081526004016121689061450c565b60405180910390fd5b600061217b6126ca565b905061219b81878761218c8861295f565b6121958861295f565b876126d9565b600080600086815260200190815260200160002060008873ffffffffffffffffffffffffffffffffffffffff1673ffffffffffffffffffffffffffffffffffffffff16815260200190815260200160002054905083811015612232576040517f08c379a00000000000000000000000000000000000000000000000000000000081526004016122299061460c565b60405180910390fd5b838161223e9190614982565b60008087815260200190815260200160002060008973ffffffffffffffffffffffffffffffffffffffff1673ffffffffffffffffffffffffffffffffffffffff168152602001908152602001600020819055508360008087815260200190815260200160002060008873ffffffffffffffffffffffffffffffffffffffff1673ffffffffffffffffffffffffffffffffffffffff16815260200190815260200160002060008282546122f0919061492c565b925050819055508573ffffffffffffffffffffffffffffffffffffffff168773ffffffffffffffffffffffffffffffffffffffff168373ffffffffffffffffffffffffffffffffffffffff167fc3d58168c5ae7397731d063d5bbf3d657854427343f4c083240f7aacaa2d0f62888860405161236d929190614767565b60405180910390a4612383828888888888612a25565b50505050505050565b67016345785d8a000081565b60006123a53360006107af565b116123e5576040517f08c379a00000000000000000000000000000000000000000000000000000000081526004016123dc906144ec565b60405180910390fd5b60011515600d600083815260200190815260200160002060003373ffffffffffffffffffffffffffffffffffffffff1673ffffffffffffffffffffffffffffffffffffffff16815260200190815260200160002060009054906101000a900460ff161515141561248a576040517f08c379a00000000000000000000000000000000000000000000000000000000081526004016124819061454c565b60405180910390fd5b600e81815481106124c4577f4e487b7100000000000000000000000000000000000000000000000000000000600052603260045260246000fd5b906000526020600020906002020160010160008154809291906124e690614ac7565b91905055506001600d600083815260200190815260200160002060003373ffffffffffffffffffffffffffffffffffffffff1673ffffffffffffffffffffffffffffffffffffffff16815260200190815260200160002060006101000a81548160ff02191690831515021790555050565b60007f01ffc9a7000000000000000000000000000000000000000000000000000000007bffffffffffffffffffffffffffffffffffffffffffffffffffffffff1916827bffffffffffffffffffffffffffffffffffffffffffffffffffffffff1916149050919050565b60008073ffffffffffffffffffffffffffffffffffffffff168673ffffffffffffffffffffffffffffffffffffffff161415612632576040517f08c379a00000000000000000000000000000000000000000000000000000000081526004016126299061458c565b60405180910390fd5b600161264561264087612bf5565b612c5d565b8386866040516000815260200160405260405161266594939291906143c3565b6020604051602081039080840390855afa158015612687573d6000803e3d6000fd5b5050506020604051035173ffffffffffffffffffffffffffffffffffffffff168673ffffffffffffffffffffffffffffffffffffffff1614905095945050505050565b60006126d4612c96565b905090565b505050505050565b6127008473ffffffffffffffffffffffffffffffffffffffff16612d47565b156128a9578373ffffffffffffffffffffffffffffffffffffffff1663bc197c8187878686866040518663ffffffff1660e01b8152600401612746959493929190614204565b602060405180830381600087803b15801561276057600080fd5b505af192505050801561279157506040513d601f19601f8201168201806040525081019061278e919061350d565b60015b6128205761279d614bf6565b806127a857506127e5565b806040517f08c379a00000000000000000000000000000000000000000000000000000000081526004016127dc919061442a565b60405180910390fd5b6040517f08c379a00000000000000000000000000000000000000000000000000000000081526004016128179061444c565b60405180910390fd5b63bc197c8160e01b7bffffffffffffffffffffffffffffffffffffffffffffffffffffffff1916817bffffffffffffffffffffffffffffffffffffffffffffffffffffffff1916146128a7576040517f08c379a000000000000000000000000000000000000000000000000000000000815260040161289e9061446c565b60405180910390fd5b505b505050505050565b80600290805190602001906128c7929190612d5a565b5050565b6000600160008473ffffffffffffffffffffffffffffffffffffffff1673ffffffffffffffffffffffffffffffffffffffff16815260200190815260200160002060008373ffffffffffffffffffffffffffffffffffffffff1673ffffffffffffffffffffffffffffffffffffffff16815260200190815260200160002060009054906101000a900460ff16905092915050565b60606000600167ffffffffffffffff8111156129a4577f4e487b7100000000000000000000000000000000000000000000000000000000600052604160045260246000fd5b6040519080825280602002602001820160405280156129d25781602001602082028036833780820191505090505b5090508281600081518110612a10577f4e487b7100000000000000000000000000000000000000000000000000000000600052603260045260246000fd5b60200260200101818152505080915050919050565b612a448473ffffffffffffffffffffffffffffffffffffffff16612d47565b15612bed578373ffffffffffffffffffffffffffffffffffffffff1663f23a6e6187878686866040518663ffffffff1660e01b8152600401612a8a95949392919061426c565b602060405180830381600087803b158015612aa457600080fd5b505af1925050508015612ad557506040513d601f19601f82011682018060405250810190612ad2919061350d565b60015b612b6457612ae1614bf6565b80612aec5750612b29565b806040517f08c379a0000000000000000000000000000000000000000000000000000000008152600401612b20919061442a565b60405180910390fd5b6040517f08c379a0000000000000000000000000000000000000000000000000000000008152600401612b5b9061444c565b60405180910390fd5b63f23a6e6160e01b7bffffffffffffffffffffffffffffffffffffffffffffffffffffffff1916817bffffffffffffffffffffffffffffffffffffffffffffffffffffffff191614612beb576040517f08c379a0000000000000000000000000000000000000000000000000000000008152600401612be29061446c565b60405180910390fd5b505b505050505050565b6000604051806080016040528060438152602001614d37604391398051906020012082600001518360200151846040015180519060200120604051602001612c40949392919061437e565b604051602081830303815290604052805190602001209050919050565b6000612c67610d93565b82604051602001612c7992919061415f565b604051602081830303815290604052805190602001209050919050565b60003073ffffffffffffffffffffffffffffffffffffffff163373ffffffffffffffffffffffffffffffffffffffff161415612d4057600080368080601f016020809104026020016040519081016040528093929190818152602001838380828437600081840152601f19601f820116905080830192505050505050509050600080369050905073ffffffffffffffffffffffffffffffffffffffff818301511692505050612d44565b3390505b90565b600080823b905060008111915050919050565b828054612d6690614a95565b90600052602060002090601f016020900481019282612d885760008555612dcf565b82601f10612da157805160ff1916838001178555612dcf565b82800160010185558215612dcf579182015b82811115612dce578251825591602001919060010190612db3565b5b509050612ddc9190612de0565b5090565b5b80821115612df9576000816000905550600101612de1565b5090565b6000612e10612e0b846147c1565b614790565b90508083825260208201905082856020860282011115612e2f57600080fd5b60005b85811015612e5f5781612e458882612fae565b845260208401935060208301925050600181019050612e32565b5050509392505050565b6000612e7c612e77846147ed565b614790565b9050808382526020820190508260005b85811015612ebc5781358501612ea288826130bf565b845260208401935060208301925050600181019050612e8c565b5050509392505050565b6000612ed9612ed484614819565b614790565b90508083825260208201905082856020860282011115612ef857600080fd5b60005b85811015612f285781612f0e88826130e9565b845260208401935060208301925050600181019050612efb565b5050509392505050565b6000612f45612f4084614845565b614790565b905082815260208101848484011115612f5d57600080fd5b612f68848285614a53565b509392505050565b6000612f83612f7e84614875565b614790565b905082815260208101848484011115612f9b57600080fd5b612fa6848285614a53565b509392505050565b600081359050612fbd81614cac565b92915050565b600082601f830112612fd457600080fd5b8135612fe4848260208601612dfd565b91505092915050565b600082601f830112612ffe57600080fd5b813561300e848260208601612e69565b91505092915050565b600082601f83011261302857600080fd5b8135613038848260208601612ec6565b91505092915050565b60008135905061305081614cc3565b92915050565b60008135905061306581614cda565b92915050565b60008135905061307a81614cf1565b92915050565b60008151905061308f81614cf1565b92915050565b600082601f8301126130a657600080fd5b81356130b6848260208601612f32565b91505092915050565b600082601f8301126130d057600080fd5b81356130e0848260208601612f70565b91505092915050565b6000813590506130f881614d08565b92915050565b60008135905061310d81614d1f565b92915050565b60006020828403121561312557600080fd5b600061313384828501612fae565b91505092915050565b6000806040838503121561314f57600080fd5b600061315d85828601612fae565b925050602061316e85828601612fae565b9150509250929050565b600080600080600060a0868803121561319057600080fd5b600061319e88828901612fae565b95505060206131af88828901612fae565b945050604086013567ffffffffffffffff8111156131cc57600080fd5b6131d888828901613017565b935050606086013567ffffffffffffffff8111156131f557600080fd5b61320188828901613017565b925050608086013567ffffffffffffffff81111561321e57600080fd5b61322a88828901613095565b9150509295509295909350565b600080600080600060a0868803121561324f57600080fd5b600061325d88828901612fae565b955050602061326e88828901612fae565b945050604061327f888289016130e9565b9350506060613290888289016130e9565b925050608086013567ffffffffffffffff8111156132ad57600080fd5b6132b988828901613095565b9150509295509295909350565b600080604083850312156132d957600080fd5b60006132e785828601612fae565b92505060206132f885828601613041565b9150509250929050565b600080600080600060a0868803121561331a57600080fd5b600061332888828901612fae565b955050602086013567ffffffffffffffff81111561334557600080fd5b61335188828901613095565b945050604061336288828901613056565b935050606061337388828901613056565b9250506080613384888289016130fe565b9150509295509295909350565b600080604083850312156133a457600080fd5b60006133b285828601612fae565b92505060206133c3858286016130e9565b9150509250929050565b6000602082840312156133df57600080fd5b600082013567ffffffffffffffff8111156133f957600080fd5b61340584828501612fc3565b91505092915050565b6000806040838503121561342157600080fd5b600083013567ffffffffffffffff81111561343b57600080fd5b61344785828601612fc3565b925050602083013567ffffffffffffffff81111561346457600080fd5b61347085828601613017565b9150509250929050565b60006020828403121561348c57600080fd5b600082013567ffffffffffffffff8111156134a657600080fd5b6134b284828501612fed565b91505092915050565b6000602082840312156134cd57600080fd5b60006134db84828501613056565b91505092915050565b6000602082840312156134f657600080fd5b60006135048482850161306b565b91505092915050565b60006020828403121561351f57600080fd5b600061352d84828501613080565b91505092915050565b60006020828403121561354857600080fd5b600082013567ffffffffffffffff81111561356257600080fd5b61356e848285016130bf565b91505092915050565b6000806040838503121561358a57600080fd5b600083013567ffffffffffffffff8111156135a457600080fd5b6135b0858286016130bf565b925050602083013567ffffffffffffffff8111156135cd57600080fd5b6135d9858286016130bf565b9150509250929050565b6000602082840312156135f557600080fd5b6000613603848285016130e9565b91505092915050565b6000806040838503121561361f57600080fd5b600061362d858286016130e9565b925050602061363e85828601612fae565b9150509250929050565b600061365483836140dc565b60208301905092915050565b613669816149c8565b82525050565b613678816149b6565b82525050565b61368f61368a826149b6565b614b10565b82525050565b60006136a0826148b5565b6136aa81856148e3565b93506136b5836148a5565b8060005b838110156136e65781516136cd8882613648565b97506136d8836148d6565b9250506001810190506136b9565b5085935050505092915050565b6136fc816149da565b82525050565b61370b816149e6565b82525050565b61372261371d826149e6565b614b22565b82525050565b6000613733826148c0565b61373d81856148f4565b935061374d818560208601614a62565b61375681614bcb565b840191505092915050565b600061376c826148c0565b6137768185614905565b9350613786818560208601614a62565b80840191505092915050565b600061379d826148cb565b6137a78185614910565b93506137b7818560208601614a62565b6137c081614bcb565b840191505092915050565b60006137d6826148cb565b6137e08185614921565b93506137f0818560208601614a62565b80840191505092915050565b6000613809603483614910565b91507f455243313135353a207472616e7366657220746f206e6f6e204552433131353560008301527f526563656976657220696d706c656d656e7465720000000000000000000000006020830152604082019050919050565b600061386f602883614910565b91507f455243313135353a204552433131353552656365697665722072656a6563746560008301527f6420746f6b656e730000000000000000000000000000000000000000000000006020830152604082019050919050565b60006138d5601083614910565b91507f6f776e6572206e6f7420756e69717565000000000000000000000000000000006000830152602082019050919050565b6000613915602b83614910565b91507f455243313135353a2062616c616e636520717565727920666f7220746865207a60008301527f65726f20616464726573730000000000000000000000000000000000000000006020830152604082019050919050565b600061397b601c83614910565b91507f46756e6374696f6e2063616c6c206e6f74207375636365737366756c000000006000830152602082019050919050565b60006139bb600283614921565b91507f19010000000000000000000000000000000000000000000000000000000000006000830152600282019050919050565b60006139fb602d83614910565b91507f596f75206e656564206f776e657273686970206f66204e465473206f7220436f60008301527f696e7320666f7220746869732e000000000000000000000000000000000000006020830152604082019050919050565b6000613a61602983614910565b91507f455243313135353a2063616c6c6572206973206e6f74206f776e6572206e6f7260008301527f20617070726f76656400000000000000000000000000000000000000000000006020830152604082019050919050565b6000613ac7602383614910565b91507f534f4c442e2046696e6420616e6f746865722044414f20746f2070757263686160008301527f73652e00000000000000000000000000000000000000000000000000000000006020830152604082019050919050565b6000613b2d602283614910565b91507f596f7520616c726561647920766f746564206f6e20746869732070726f706f7360008301527f616c0000000000000000000000000000000000000000000000000000000000006020830152604082019050919050565b6000613b93601c83614910565b91507f4e6f20617267756d656e747320776572652070617373656420696e2e000000006000830152602082019050919050565b6000613bd3602583614910565b91507f4e61746976654d6574615472616e73616374696f6e3a20494e56414c49445f5360008301527f49474e45520000000000000000000000000000000000000000000000000000006020830152604082019050919050565b6000613c39602583614910565b91507f455243313135353a207472616e7366657220746f20746865207a65726f20616460008301527f64726573730000000000000000000000000000000000000000000000000000006020830152604082019050919050565b6000613c9f603283614910565b91507f455243313135353a207472616e736665722063616c6c6572206973206e6f742060008301527f6f776e6572206e6f7220617070726f76656400000000000000000000000000006020830152604082019050919050565b6000613d05602483614910565b91507f596f75206e65656420746f2068617665206f776e65727368697020666f72207460008301527f6869732e000000000000000000000000000000000000000000000000000000006020830152604082019050919050565b6000613d6b602a83614910565b91507f455243313135353a20696e73756666696369656e742062616c616e636520666f60008301527f72207472616e73666572000000000000000000000000000000000000000000006020830152604082019050919050565b6000613dd1601983614910565b91507f4e6f206574686572206c65667420746f207769746864726177000000000000006000830152602082019050919050565b6000613e11602183614910565b91507f5369676e657220616e64207369676e617475726520646f206e6f74206d61746360008301527f68000000000000000000000000000000000000000000000000000000000000006020830152604082019050919050565b6000613e77601f83614910565b91507f596f7520617265206e6f7420746865206f726967696e616c2073656c6c6572006000830152602082019050919050565b6000613eb7600083614905565b9150600082019050919050565b6000613ed1601083614910565b91507f5472616e73666572206661696c65642e000000000000000000000000000000006000830152602082019050919050565b6000613f11601583614910565b91507f4e6f7420656e6f756768207061792c20436861642e00000000000000000000006000830152602082019050919050565b6000613f51602983614910565b91507f455243313135353a2073657474696e6720617070726f76616c2073746174757360008301527f20666f722073656c6600000000000000000000000000000000000000000000006020830152604082019050919050565b6000613fb7602983614910565b91507f455243313135353a206163636f756e747320616e6420696473206c656e67746860008301527f206d69736d6174636800000000000000000000000000000000000000000000006020830152604082019050919050565b600061401d602883614910565b91507f455243313135353a2069647320616e6420616d6f756e7473206c656e6774682060008301527f6d69736d617463680000000000000000000000000000000000000000000000006020830152604082019050919050565b6000614083602583614910565b91507f696e76616c6964206f776e65722e2063616e6e6f74206265207a65726f20616460008301527f64726573730000000000000000000000000000000000000000000000000000006020830152604082019050919050565b6140e581614a3c565b82525050565b6140f481614a3c565b82525050565b61410381614a46565b82525050565b60006141158284613761565b915081905092915050565b600061412c8285613761565b9150614138828461367e565b6014820191508190509392505050565b600061415482846137cb565b915081905092915050565b600061416a826139ae565b91506141768285613711565b6020820191506141868284613711565b6020820191508190509392505050565b60006141a182613eaa565b9150819050919050565b60006020820190506141c0600083018461366f565b92915050565b60006060820190506141db600083018661366f565b6141e86020830185613660565b81810360408301526141fa8184613728565b9050949350505050565b600060a082019050614219600083018861366f565b614226602083018761366f565b81810360408301526142388186613695565b9050818103606083015261424c8185613695565b905081810360808301526142608184613728565b90509695505050505050565b600060a082019050614281600083018861366f565b61428e602083018761366f565b61429b60408301866140eb565b6142a860608301856140eb565b81810360808301526142ba8184613728565b90509695505050505050565b600060208201905081810360008301526142e08184613695565b905092915050565b600060408201905081810360008301526143028185613695565b905081810360208301526143168184613695565b90509392505050565b600060208201905061433460008301846136f3565b92915050565b600060208201905061434f6000830184613702565b92915050565b600060408201905061436a6000830185613702565b61437760208301846140eb565b9392505050565b60006080820190506143936000830187613702565b6143a060208301866140eb565b6143ad604083018561366f565b6143ba6060830184613702565b95945050505050565b60006080820190506143d86000830187613702565b6143e560208301866140fa565b6143f26040830185613702565b6143ff6060830184613702565b95945050505050565b600060208201905081810360008301526144228184613728565b905092915050565b600060208201905081810360008301526144448184613792565b905092915050565b60006020820190508181036000830152614465816137fc565b9050919050565b6000602082019050818103600083015261448581613862565b9050919050565b600060208201905081810360008301526144a5816138c8565b9050919050565b600060208201905081810360008301526144c581613908565b9050919050565b600060208201905081810360008301526144e58161396e565b9050919050565b60006020820190508181036000830152614505816139ee565b9050919050565b6000602082019050818103600083015261452581613a54565b9050919050565b6000602082019050818103600083015261454581613aba565b9050919050565b6000602082019050818103600083015261456581613b20565b9050919050565b6000602082019050818103600083015261458581613b86565b9050919050565b600060208201905081810360008301526145a581613bc6565b9050919050565b600060208201905081810360008301526145c581613c2c565b9050919050565b600060208201905081810360008301526145e581613c92565b9050919050565b6000602082019050818103600083015261460581613cf8565b9050919050565b6000602082019050818103600083015261462581613d5e565b9050919050565b6000602082019050818103600083015261464581613dc4565b9050919050565b6000602082019050818103600083015261466581613e04565b9050919050565b6000602082019050818103600083015261468581613e6a565b9050919050565b600060208201905081810360008301526146a581613ec4565b9050919050565b600060208201905081810360008301526146c581613f04565b9050919050565b600060208201905081810360008301526146e581613f44565b9050919050565b6000602082019050818103600083015261470581613faa565b9050919050565b6000602082019050818103600083015261472581614010565b9050919050565b6000602082019050818103600083015261474581614076565b9050919050565b600060208201905061476160008301846140eb565b92915050565b600060408201905061477c60008301856140eb565b61478960208301846140eb565b9392505050565b6000604051905081810181811067ffffffffffffffff821117156147b7576147b6614b9c565b5b8060405250919050565b600067ffffffffffffffff8211156147dc576147db614b9c565b5b602082029050602081019050919050565b600067ffffffffffffffff82111561480857614807614b9c565b5b602082029050602081019050919050565b600067ffffffffffffffff82111561483457614833614b9c565b5b602082029050602081019050919050565b600067ffffffffffffffff8211156148605761485f614b9c565b5b601f19601f8301169050602081019050919050565b600067ffffffffffffffff8211156148905761488f614b9c565b5b601f19601f8301169050602081019050919050565b6000819050602082019050919050565b600081519050919050565b600081519050919050565b600081519050919050565b6000602082019050919050565b600082825260208201905092915050565b600082825260208201905092915050565b600081905092915050565b600082825260208201905092915050565b600081905092915050565b600061493782614a3c565b915061494283614a3c565b9250827fffffffffffffffffffffffffffffffffffffffffffffffffffffffffffffffff0382111561497757614976614b3e565b5b828201905092915050565b600061498d82614a3c565b915061499883614a3c565b9250828210156149ab576149aa614b3e565b5b828203905092915050565b60006149c182614a1c565b9050919050565b60006149d382614a1c565b9050919050565b60008115159050919050565b6000819050919050565b60007fffffffff0000000000000000000000000000000000000000000000000000000082169050919050565b600073ffffffffffffffffffffffffffffffffffffffff82169050919050565b6000819050919050565b600060ff82169050919050565b82818337600083830152505050565b60005b83811015614a80578082015181840152602081019050614a65565b83811115614a8f576000848401525b50505050565b60006002820490506001821680614aad57607f821691505b60208210811415614ac157614ac0614b6d565b5b50919050565b6000614ad282614a3c565b91507fffffffffffffffffffffffffffffffffffffffffffffffffffffffffffffffff821415614b0557614b04614b3e565b5b600182019050919050565b6000614b1b82614b2c565b9050919050565b6000819050919050565b6000614b3782614bdc565b9050919050565b7f4e487b7100000000000000000000000000000000000000000000000000000000600052601160045260246000fd5b7f4e487b7100000000000000000000000000000000000000000000000000000000600052602260045260246000fd5b7f4e487b7100000000000000000000000000000000000000000000000000000000600052604160045260246000fd5b6000601f19601f8301169050919050565b60008160601b9050919050565b60008160e01c9050919050565b600060443d1015614c0657614ca9565b60046000803e614c17600051614be9565b6308c379a08114614c285750614ca9565b60405160043d036004823e80513d602482011167ffffffffffffffff82111715614c5457505050614ca9565b808201805167ffffffffffffffff811115614c73575050505050614ca9565b8060208301013d8501811115614c8e57505050505050614ca9565b614c9782614bcb565b60208401016040528296505050505050505b90565b614cb5816149b6565b8114614cc057600080fd5b50565b614ccc816149da565b8114614cd757600080fd5b50565b614ce3816149e6565b8114614cee57600080fd5b50565b614cfa816149f0565b8114614d0557600080fd5b50565b614d1181614a3c565b8114614d1c57600080fd5b50565b614d2881614a46565b8114614d3357600080fd5b5056fe4d6574615472616e73616374696f6e2875696e74323536206e6f6e63652c616464726573732066726f6d2c62797465732066756e6374696f6e5369676e617475726529a264697066735822122094175279e7e3a33035af941684f61564f223d81e1da2bbf201a9fcf6ef84f5b664736f6c63430008000033454950373132446f6d61696e28737472696e67206e616d652c737472696e672076657273696f6e2c6164647265737320766572696679696e67436f6e74726163742c627974657333322073616c7429",
  "linkReferences": {},
  "deployedLinkReferences": {}
}