{
  "_format": "hh-sol-artifact-1",
  "contractName": "DAO",
  "sourceName": "contracts/DAO.sol",
  "abi": [
    {
      "inputs": [
        {
          "internalType": "string",
          "name": "name_",
          "type": "string"
        }
      ],
      "stateMutability": "nonpayable",
      "type": "constructor"
    },
    {
      "anonymous": false,
      "inputs": [
        {
          "indexed": true,
          "internalType": "address",
          "name": "account",
          "type": "address"
        },
        {
          "indexed": true,
          "internalType": "address",
          "name": "operator",
          "type": "address"
        },
        {
          "indexed": false,
          "internalType": "bool",
          "name": "approved",
          "type": "bool"
        }
      ],
      "name": "ApprovalForAll",
      "type": "event"
    },
    {
      "anonymous": false,
      "inputs": [
        {
          "indexed": false,
          "internalType": "address",
          "name": "userAddress",
          "type": "address"
        },
        {
          "indexed": false,
          "internalType": "address payable",
          "name": "relayerAddress",
          "type": "address"
        },
        {
          "indexed": false,
          "internalType": "bytes",
          "name": "functionSignature",
          "type": "bytes"
        }
      ],
      "name": "MetaTransactionExecuted",
      "type": "event"
    },
    {
      "anonymous": false,
      "inputs": [
        {
          "indexed": true,
          "internalType": "address",
          "name": "operator",
          "type": "address"
        },
        {
          "indexed": true,
          "internalType": "address",
          "name": "from",
          "type": "address"
        },
        {
          "indexed": true,
          "internalType": "address",
          "name": "to",
          "type": "address"
        },
        {
          "indexed": false,
          "internalType": "uint256[]",
          "name": "ids",
          "type": "uint256[]"
        },
        {
          "indexed": false,
          "internalType": "uint256[]",
          "name": "values",
          "type": "uint256[]"
        }
      ],
      "name": "TransferBatch",
      "type": "event"
    },
    {
      "anonymous": false,
      "inputs": [
        {
          "indexed": true,
          "internalType": "address",
          "name": "operator",
          "type": "address"
        },
        {
          "indexed": true,
          "internalType": "address",
          "name": "from",
          "type": "address"
        },
        {
          "indexed": true,
          "internalType": "address",
          "name": "to",
          "type": "address"
        },
        {
          "indexed": false,
          "internalType": "uint256",
          "name": "id",
          "type": "uint256"
        },
        {
          "indexed": false,
          "internalType": "uint256",
          "name": "value",
          "type": "uint256"
        }
      ],
      "name": "TransferSingle",
      "type": "event"
    },
    {
      "anonymous": false,
      "inputs": [
        {
          "indexed": false,
          "internalType": "string",
          "name": "value",
          "type": "string"
        },
        {
          "indexed": true,
          "internalType": "uint256",
          "name": "id",
          "type": "uint256"
        }
      ],
      "name": "URI",
      "type": "event"
    },
    {
      "anonymous": false,
      "inputs": [
        {
          "indexed": false,
          "internalType": "address",
          "name": "newOwner",
          "type": "address"
        }
      ],
      "name": "contractSaleEvent",
      "type": "event"
    },
    {
      "inputs": [],
      "name": "ERC712_VERSION",
      "outputs": [
        {
          "internalType": "string",
          "name": "",
          "type": "string"
        }
      ],
      "stateMutability": "view",
      "type": "function"
    },
    {
      "inputs": [
        {
          "internalType": "address",
          "name": "nftOwner",
          "type": "address"
        }
      ],
      "name": "_isNFTOwner",
      "outputs": [
        {
          "internalType": "bool",
          "name": "",
          "type": "bool"
        }
      ],
      "stateMutability": "view",
      "type": "function"
    },
    {
      "inputs": [
        {
          "internalType": "string[]",
          "name": "newTokens",
          "type": "string[]"
        }
      ],
      "name": "addNewTokenIDs",
      "outputs": [],
      "stateMutability": "nonpayable",
      "type": "function"
    },
    {
      "inputs": [
        {
          "internalType": "address[]",
          "name": "newOwners",
          "type": "address[]"
        }
      ],
      "name": "addOwners",
      "outputs": [],
      "stateMutability": "nonpayable",
      "type": "function"
    },
    {
      "inputs": [
        {
          "internalType": "address",
          "name": "account",
          "type": "address"
        },
        {
          "internalType": "uint256",
          "name": "id",
          "type": "uint256"
        }
      ],
      "name": "balanceOf",
      "outputs": [
        {
          "internalType": "uint256",
          "name": "",
          "type": "uint256"
        }
      ],
      "stateMutability": "view",
      "type": "function"
    },
    {
      "inputs": [
        {
          "internalType": "address[]",
          "name": "accounts",
          "type": "address[]"
        },
        {
          "internalType": "uint256[]",
          "name": "ids",
          "type": "uint256[]"
        }
      ],
      "name": "balanceOfBatch",
      "outputs": [
        {
          "internalType": "uint256[]",
          "name": "",
          "type": "uint256[]"
        }
      ],
      "stateMutability": "view",
      "type": "function"
    },
    {
      "inputs": [
        {
          "internalType": "string",
          "name": "newOwnerName",
          "type": "string"
        },
        {
          "internalType": "string",
          "name": "newDaoName",
          "type": "string"
        }
      ],
      "name": "buyOwnership",
      "outputs": [],
      "stateMutability": "payable",
      "type": "function"
    },
    {
      "inputs": [],
      "name": "contractBalance",
      "outputs": [
        {
          "internalType": "uint256",
          "name": "",
          "type": "uint256"
        }
      ],
      "stateMutability": "view",
      "type": "function"
    },
    {
      "inputs": [],
      "name": "contractSold",
      "outputs": [
        {
          "internalType": "bool",
          "name": "",
          "type": "bool"
        }
      ],
      "stateMutability": "view",
      "type": "function"
    },
    {
      "inputs": [
        {
          "internalType": "address",
          "name": "userAddress",
          "type": "address"
        },
        {
          "internalType": "bytes",
          "name": "functionSignature",
          "type": "bytes"
        },
        {
          "internalType": "bytes32",
          "name": "sigR",
          "type": "bytes32"
        },
        {
          "internalType": "bytes32",
          "name": "sigS",
          "type": "bytes32"
        },
        {
          "internalType": "uint8",
          "name": "sigV",
          "type": "uint8"
        }
      ],
      "name": "executeMetaTransaction",
      "outputs": [
        {
          "internalType": "bytes",
          "name": "",
          "type": "bytes"
        }
      ],
      "stateMutability": "payable",
      "type": "function"
    },
    {
      "inputs": [],
      "name": "getChainId",
      "outputs": [
        {
          "internalType": "uint256",
          "name": "",
          "type": "uint256"
        }
      ],
      "stateMutability": "view",
      "type": "function"
    },
    {
      "inputs": [],
      "name": "getDomainSeperator",
      "outputs": [
        {
          "internalType": "bytes32",
          "name": "",
          "type": "bytes32"
        }
      ],
      "stateMutability": "view",
      "type": "function"
    },
    {
      "inputs": [
        {
          "internalType": "address",
          "name": "user",
          "type": "address"
        }
      ],
      "name": "getNonce",
      "outputs": [
        {
          "internalType": "uint256",
          "name": "nonce",
          "type": "uint256"
        }
      ],
      "stateMutability": "view",
      "type": "function"
    },
    {
      "inputs": [
        {
          "internalType": "uint256",
          "name": "",
          "type": "uint256"
        },
        {
          "internalType": "address",
          "name": "",
          "type": "address"
        }
      ],
      "name": "hasVoted",
      "outputs": [
        {
          "internalType": "bool",
          "name": "",
          "type": "bool"
        }
      ],
      "stateMutability": "view",
      "type": "function"
    },
    {
      "inputs": [
        {
          "internalType": "address",
          "name": "_owner",
          "type": "address"
        },
        {
          "internalType": "address",
          "name": "_operator",
          "type": "address"
        }
      ],
      "name": "isApprovedForAll",
      "outputs": [
        {
          "internalType": "bool",
          "name": "isOperator",
          "type": "bool"
        }
      ],
      "stateMutability": "view",
      "type": "function"
    },
    {
      "inputs": [
        {
          "internalType": "address",
          "name": "",
          "type": "address"
        }
      ],
      "name": "isOwner",
      "outputs": [
        {
          "internalType": "bool",
          "name": "",
          "type": "bool"
        }
      ],
      "stateMutability": "view",
      "type": "function"
    },
    {
      "inputs": [],
      "name": "name",
      "outputs": [
        {
          "internalType": "string",
          "name": "",
          "type": "string"
        }
      ],
      "stateMutability": "view",
      "type": "function"
    },
    {
      "inputs": [
        {
          "internalType": "bytes32",
          "name": "newName",
          "type": "bytes32"
        }
      ],
      "name": "newProposal",
      "outputs": [],
      "stateMutability": "nonpayable",
      "type": "function"
    },
    {
      "inputs": [],
      "name": "originalSeller",
      "outputs": [
        {
          "internalType": "address",
          "name": "",
          "type": "address"
        }
      ],
      "stateMutability": "view",
      "type": "function"
    },
    {
      "inputs": [
        {
          "internalType": "address",
          "name": "to",
          "type": "address"
        },
        {
          "internalType": "string",
          "name": "tokenString",
          "type": "string"
        },
        {
          "internalType": "uint256",
          "name": "amount",
          "type": "uint256"
        }
      ],
      "name": "ownerMint",
      "outputs": [],
      "stateMutability": "nonpayable",
      "type": "function"
    },
    {
      "inputs": [],
      "name": "ownerName",
      "outputs": [
        {
          "internalType": "string",
          "name": "",
          "type": "string"
        }
      ],
      "stateMutability": "view",
      "type": "function"
    },
    {
      "inputs": [
        {
          "internalType": "uint256",
          "name": "",
          "type": "uint256"
        }
      ],
      "name": "owners",
      "outputs": [
        {
          "internalType": "address",
          "name": "",
          "type": "address"
        }
      ],
      "stateMutability": "view",
      "type": "function"
    },
    {
      "inputs": [
        {
          "internalType": "uint256",
          "name": "",
          "type": "uint256"
        }
      ],
      "name": "proposals",
      "outputs": [
        {
          "internalType": "bytes32",
          "name": "name",
          "type": "bytes32"
        },
        {
          "internalType": "uint256",
          "name": "upVotes",
          "type": "uint256"
        },
        {
          "internalType": "uint256",
          "name": "downVotes",
          "type": "uint256"
        }
      ],
      "stateMutability": "view",
      "type": "function"
    },
    {
      "inputs": [
        {
          "internalType": "address",
          "name": "from",
          "type": "address"
        },
        {
          "internalType": "address",
          "name": "to",
          "type": "address"
        },
        {
          "internalType": "uint256[]",
          "name": "ids",
          "type": "uint256[]"
        },
        {
          "internalType": "uint256[]",
          "name": "amounts",
          "type": "uint256[]"
        },
        {
          "internalType": "bytes",
          "name": "data",
          "type": "bytes"
        }
      ],
      "name": "safeBatchTransferFrom",
      "outputs": [],
      "stateMutability": "nonpayable",
      "type": "function"
    },
    {
      "inputs": [
        {
          "internalType": "address",
          "name": "from",
          "type": "address"
        },
        {
          "internalType": "address",
          "name": "to",
          "type": "address"
        },
        {
          "internalType": "uint256",
          "name": "id",
          "type": "uint256"
        },
        {
          "internalType": "uint256",
          "name": "amount",
          "type": "uint256"
        },
        {
          "internalType": "bytes",
          "name": "data",
          "type": "bytes"
        }
      ],
      "name": "safeTransferFrom",
      "outputs": [],
      "stateMutability": "nonpayable",
      "type": "function"
    },
    {
      "inputs": [],
      "name": "salePrice",
      "outputs": [
        {
          "internalType": "uint256",
          "name": "",
          "type": "uint256"
        }
      ],
      "stateMutability": "view",
      "type": "function"
    },
    {
      "inputs": [
        {
          "internalType": "address",
          "name": "operator",
          "type": "address"
        },
        {
          "internalType": "bool",
          "name": "approved",
          "type": "bool"
        }
      ],
      "name": "setApprovalForAll",
      "outputs": [],
      "stateMutability": "nonpayable",
      "type": "function"
    },
    {
      "inputs": [
        {
          "internalType": "string",
          "name": "newURI",
          "type": "string"
        }
      ],
      "name": "setBaseURI",
      "outputs": [],
      "stateMutability": "nonpayable",
      "type": "function"
    },
    {
      "inputs": [
        {
          "internalType": "bytes4",
          "name": "interfaceId",
          "type": "bytes4"
        }
      ],
      "name": "supportsInterface",
      "outputs": [
        {
          "internalType": "bool",
          "name": "",
          "type": "bool"
        }
      ],
      "stateMutability": "view",
      "type": "function"
    },
    {
      "inputs": [
        {
          "internalType": "uint256",
          "name": "",
          "type": "uint256"
        }
      ],
      "name": "tokenIdArray",
      "outputs": [
        {
          "internalType": "uint256",
          "name": "",
          "type": "uint256"
        }
      ],
      "stateMutability": "view",
      "type": "function"
    },
    {
      "inputs": [
        {
          "internalType": "string",
          "name": "",
          "type": "string"
        }
      ],
      "name": "tokenIdMapping",
      "outputs": [
        {
          "internalType": "uint256",
          "name": "",
          "type": "uint256"
        }
      ],
      "stateMutability": "view",
      "type": "function"
    },
    {
      "inputs": [
        {
          "internalType": "uint256",
          "name": "",
          "type": "uint256"
        }
      ],
      "name": "tokenStringArray",
      "outputs": [
        {
          "internalType": "string",
          "name": "",
          "type": "string"
        }
      ],
      "stateMutability": "view",
      "type": "function"
    },
    {
      "inputs": [
        {
          "internalType": "uint256",
          "name": "",
          "type": "uint256"
        }
      ],
      "name": "uri",
      "outputs": [
        {
          "internalType": "string",
          "name": "",
          "type": "string"
        }
      ],
      "stateMutability": "view",
      "type": "function"
    },
    {
      "inputs": [
        {
          "internalType": "uint256",
          "name": "index",
          "type": "uint256"
        }
      ],
      "name": "voteDown",
      "outputs": [],
      "stateMutability": "nonpayable",
      "type": "function"
    },
    {
      "inputs": [
        {
          "internalType": "uint256",
          "name": "index",
          "type": "uint256"
        }
      ],
      "name": "voteUp",
      "outputs": [],
      "stateMutability": "nonpayable",
      "type": "function"
    },
    {
      "inputs": [],
      "name": "withdraw",
      "outputs": [],
      "stateMutability": "payable",
      "type": "function"
    }
  ],
  "bytecode": "0x60806040526000600360006101000a81548160ff0219169083151502179055503480156200002c57600080fd5b5060405162005e8e38038062005e8e83398181016040528101906200005291906200037d565b6040518060200160405280600081525062000073816200010160201b60201c565b506000600660146101000a81548160ff02191690831515021790555033600660006101000a81548173ffffffffffffffffffffffffffffffffffffffff021916908373ffffffffffffffffffffffffffffffffffffffff1602179055508060079080519060200190620000e89291906200025b565b50620000fa816200011d60201b60201c565b5062000625565b8060029080519060200190620001199291906200025b565b5050565b600360009054906101000a900460ff161562000170576040517f08c379a0000000000000000000000000000000000000000000000000000000008152600401620001679062000483565b60405180910390fd5b62000181816200019f60201b60201c565b6001600360006101000a81548160ff02191690831515021790555050565b6040518060800160405280604f815260200162005e3f604f91398051906020012081805190602001206040518060400160405280600181526020017f31000000000000000000000000000000000000000000000000000000000000008152508051906020012030620002166200024e60201b60201c565b60001b6040516020016200022f95949392919062000426565b6040516020818303038152906040528051906020012060048190555050565b6000804690508091505090565b828054620002699062000591565b90600052602060002090601f0160209004810192826200028d5760008555620002d9565b82601f10620002a857805160ff1916838001178555620002d9565b82800160010185558215620002d9579182015b82811115620002d8578251825591602001919060010190620002bb565b5b509050620002e89190620002ec565b5090565b5b8082111562000307576000816000905550600101620002ed565b5090565b6000620003226200031c84620004d9565b620004a5565b9050828152602081018484840111156200033b57600080fd5b620003488482856200055b565b509392505050565b600082601f8301126200036257600080fd5b8151620003748482602086016200030b565b91505092915050565b6000602082840312156200039057600080fd5b600082015167ffffffffffffffff811115620003ab57600080fd5b620003b98482850162000350565b91505092915050565b620003cd816200051d565b82525050565b620003de8162000531565b82525050565b6000620003f3600e836200050c565b91507f616c726561647920696e697465640000000000000000000000000000000000006000830152602082019050919050565b600060a0820190506200043d6000830188620003d3565b6200044c6020830187620003d3565b6200045b6040830186620003d3565b6200046a6060830185620003c2565b620004796080830184620003d3565b9695505050505050565b600060208201905081810360008301526200049e81620003e4565b9050919050565b6000604051905081810181811067ffffffffffffffff82111715620004cf57620004ce620005f6565b5b8060405250919050565b600067ffffffffffffffff821115620004f757620004f6620005f6565b5b601f19601f8301169050602081019050919050565b600082825260208201905092915050565b60006200052a826200053b565b9050919050565b6000819050919050565b600073ffffffffffffffffffffffffffffffffffffffff82169050919050565b60005b838110156200057b5780820151818401526020810190506200055e565b838111156200058b576000848401525b50505050565b60006002820490506001821680620005aa57607f821691505b60208210811415620005c157620005c0620005c7565b5b50919050565b7f4e487b7100000000000000000000000000000000000000000000000000000000600052602260045260246000fd5b7f4e487b7100000000000000000000000000000000000000000000000000000000600052604160045260246000fd5b61580a80620006356000396000f3fe60806040526004361061020e5760003560e01c806355f804b311610118578063bb22ff1b116100a0578063e985e9c51161006f578063e985e9c5146107e7578063eaf5d0f314610824578063eda72b2e14610861578063f242432a1461088a578063f51f96dd146108b35761020e565b8063bb22ff1b1461073c578063c460a44d14610779578063d4ebc5ff14610795578063e5be7b84146107be5761020e565b80638f9f1030116100e75780638f9f103014610659578063a22cb46514610682578063ac50af5f146106ab578063af4055f6146106d4578063b88eabdd146106ff5761020e565b806355f804b3146105b157806365ac2320146105da5780636c46a2c5146106055780638b7afe2e1461062e5761020e565b80632d0335ab1161019b5780633ccfd60b1161016a5780633ccfd60b146104c557806343859632146104cf5780634613da991461050c5780634bee5844146105495780634e1273f4146105745761020e565b80632d0335ab146103f75780632eb2c2d6146104345780632f54bf6e1461045d5780633408e4701461049a5761020e565b806306fdde03116101e257806306fdde03146103095780630c53c51c146103345780630e89341c146103645780630f7e5970146103a157806320379ee5146103cc5761020e565b8062fdd58e14610213578063013cf08b1461025057806301ffc9a71461028f578063025e7c27146102cc575b600080fd5b34801561021f57600080fd5b5061023a60048036038101906102359190613c30565b6108de565b6040516102479190615158565b60405180910390f35b34801561025c57600080fd5b5061027760048036038101906102729190613e82565b6109a7565b60405161028693929190614d58565b60405180910390f35b34801561029b57600080fd5b506102b660048036038101906102b19190613d83565b6109e1565b6040516102c39190614c8a565b60405180910390f35b3480156102d857600080fd5b506102f360048036038101906102ee9190613e82565b610ac3565b6040516103009190614b16565b60405180910390f35b34801561031557600080fd5b5061031e610b02565b60405161032b9190614df6565b60405180910390f35b61034e60048036038101906103499190613b3a565b610b90565b60405161035b9190614dd4565b60405180910390f35b34801561037057600080fd5b5061038b60048036038101906103869190613e82565b610dfb565b6040516103989190614df6565b60405180910390f35b3480156103ad57600080fd5b506103b6610e8f565b6040516103c39190614df6565b60405180910390f35b3480156103d857600080fd5b506103e1610ec8565b6040516103ee9190614ca5565b60405180910390f35b34801561040357600080fd5b5061041e6004803603810190610419919061394b565b610ed2565b60405161042b9190615158565b60405180910390f35b34801561044057600080fd5b5061045b600480360381019061045691906139b0565b610f1b565b005b34801561046957600080fd5b50610484600480360381019061047f919061394b565b611311565b6040516104919190614c8a565b60405180910390f35b3480156104a657600080fd5b506104af611331565b6040516104bc9190615158565b60405180910390f35b6104cd61133e565b005b3480156104db57600080fd5b506104f660048036038101906104f19190613eab565b6114c6565b6040516105039190614c8a565b60405180910390f35b34801561051857600080fd5b50610533600480360381019061052e919061394b565b6114f5565b6040516105409190614c8a565b60405180910390f35b34801561055557600080fd5b5061055e611606565b60405161056b9190614b16565b60405180910390f35b34801561058057600080fd5b5061059b60048036038101906105969190613cad565b61162c565b6040516105a89190614c31565b60405180910390f35b3480156105bd57600080fd5b506105d860048036038101906105d39190613dd5565b6117dd565b005b3480156105e657600080fd5b506105ef61187c565b6040516105fc9190614df6565b60405180910390f35b34801561061157600080fd5b5061062c60048036038101906106279190613c6c565b61190a565b005b34801561063a57600080fd5b50610643611bbe565b6040516106509190615158565b60405180910390f35b34801561066557600080fd5b50610680600480360381019061067b9190613d19565b611bc6565b005b34801561068e57600080fd5b506106a960048036038101906106a49190613afe565b611dc9565b005b3480156106b757600080fd5b506106d260048036038101906106cd9190613d5a565b611f4a565b005b3480156106e057600080fd5b506106e9612048565b6040516106f69190614c8a565b60405180910390f35b34801561070b57600080fd5b5061072660048036038101906107219190613dd5565b61205b565b6040516107339190615158565b60405180910390f35b34801561074857600080fd5b50610763600480360381019061075e9190613e82565b612089565b6040516107709190615158565b60405180910390f35b610793600480360381019061078e9190613e16565b6120ad565b005b3480156107a157600080fd5b506107bc60048036038101906107b79190613e82565b612296565b005b3480156107ca57600080fd5b506107e560048036038101906107e09190613bc9565b612450565b005b3480156107f357600080fd5b5061080e60048036038101906108099190613974565b612565565b60405161081b9190614c8a565b60405180910390f35b34801561083057600080fd5b5061084b60048036038101906108469190613e82565b6125cb565b6040516108589190614df6565b60405180910390f35b34801561086d57600080fd5b5061088860048036038101906108839190613e82565b612677565b005b34801561089657600080fd5b506108b160048036038101906108ac9190613a6f565b612831565b005b3480156108bf57600080fd5b506108c8612b49565b6040516108d59190615158565b60405180910390f35b60008073ffffffffffffffffffffffffffffffffffffffff168373ffffffffffffffffffffffffffffffffffffffff16141561094f576040517f08c379a000000000000000000000000000000000000000000000000000000000815260040161094690614e78565b60405180910390fd5b60008083815260200190815260200160002060008473ffffffffffffffffffffffffffffffffffffffff1673ffffffffffffffffffffffffffffffffffffffff16815260200190815260200160002054905092915050565b600f81815481106109b757600080fd5b90600052602060002090600302016000915090508060000154908060010154908060020154905083565b60007fd9b67a26000000000000000000000000000000000000000000000000000000007bffffffffffffffffffffffffffffffffffffffffffffffffffffffff1916827bffffffffffffffffffffffffffffffffffffffffffffffffffffffff19161480610aac57507f0e89341c000000000000000000000000000000000000000000000000000000007bffffffffffffffffffffffffffffffffffffffffffffffffffffffff1916827bffffffffffffffffffffffffffffffffffffffffffffffffffffffff1916145b80610abc5750610abb82612b55565b5b9050919050565b600d8181548110610ad357600080fd5b906000526020600020016000915054906101000a900473ffffffffffffffffffffffffffffffffffffffff1681565b60078054610b0f906154a1565b80601f0160208091040260200160405190810160405280929190818152602001828054610b3b906154a1565b8015610b885780601f10610b5d57610100808354040283529160200191610b88565b820191906000526020600020905b815481529060010190602001808311610b6b57829003601f168201915b505050505081565b606060006040518060600160405280600560008a73ffffffffffffffffffffffffffffffffffffffff1673ffffffffffffffffffffffffffffffffffffffff1681526020019081526020016000205481526020018873ffffffffffffffffffffffffffffffffffffffff168152602001878152509050610c138782878787612bbf565b610c52576040517f08c379a0000000000000000000000000000000000000000000000000000000008152600401610c4990615038565b60405180910390fd5b6001600560008973ffffffffffffffffffffffffffffffffffffffff1673ffffffffffffffffffffffffffffffffffffffff16815260200190815260200160002054610c9e9190615338565b600560008973ffffffffffffffffffffffffffffffffffffffff1673ffffffffffffffffffffffffffffffffffffffff168152602001908152602001600020819055507f5845892132946850460bff5a0083f71031bc5bf9aadcd40f1de79423eac9b10b873388604051610d1493929190614b31565b60405180910390a16000803073ffffffffffffffffffffffffffffffffffffffff16888a604051602001610d49929190614a8b565b604051602081830303815290604052604051610d659190614a74565b6000604051808303816000865af19150503d8060008114610da2576040519150601f19603f3d011682016040523d82523d6000602084013e610da7565b606091505b509150915081610dec576040517f08c379a0000000000000000000000000000000000000000000000000000000008152600401610de390614e98565b60405180910390fd5b80935050505095945050505050565b606060028054610e0a906154a1565b80601f0160208091040260200160405190810160405280929190818152602001828054610e36906154a1565b8015610e835780601f10610e5857610100808354040283529160200191610e83565b820191906000526020600020905b815481529060010190602001808311610e6657829003601f168201915b50505050509050919050565b6040518060400160405280600181526020017f310000000000000000000000000000000000000000000000000000000000000081525081565b6000600454905090565b6000600560008373ffffffffffffffffffffffffffffffffffffffff1673ffffffffffffffffffffffffffffffffffffffff168152602001908152602001600020549050919050565b8151835114610f5f576040517f08c379a0000000000000000000000000000000000000000000000000000000008152600401610f56906150f8565b60405180910390fd5b600073ffffffffffffffffffffffffffffffffffffffff168473ffffffffffffffffffffffffffffffffffffffff161415610fcf576040517f08c379a0000000000000000000000000000000000000000000000000000000008152600401610fc690614f98565b60405180910390fd5b610fd7612cc8565b73ffffffffffffffffffffffffffffffffffffffff168573ffffffffffffffffffffffffffffffffffffffff16148061101d575061101c85611017612cc8565b612565565b5b61105c576040517f08c379a000000000000000000000000000000000000000000000000000000000815260040161105390614fb8565b60405180910390fd5b6000611066612cc8565b9050611076818787878787612cd7565b60005b845181101561127c5760008582815181106110bd577f4e487b7100000000000000000000000000000000000000000000000000000000600052603260045260246000fd5b602002602001015190506000858381518110611102577f4e487b7100000000000000000000000000000000000000000000000000000000600052603260045260246000fd5b60200260200101519050600080600084815260200190815260200160002060008b73ffffffffffffffffffffffffffffffffffffffff1673ffffffffffffffffffffffffffffffffffffffff168152602001908152602001600020549050818110156111a3576040517f08c379a000000000000000000000000000000000000000000000000000000000815260040161119a90614ff8565b60405180910390fd5b81816111af919061538e565b60008085815260200190815260200160002060008c73ffffffffffffffffffffffffffffffffffffffff1673ffffffffffffffffffffffffffffffffffffffff168152602001908152602001600020819055508160008085815260200190815260200160002060008b73ffffffffffffffffffffffffffffffffffffffff1673ffffffffffffffffffffffffffffffffffffffff16815260200190815260200160002060008282546112619190615338565b9250508190555050505080611275906154d3565b9050611079565b508473ffffffffffffffffffffffffffffffffffffffff168673ffffffffffffffffffffffffffffffffffffffff168273ffffffffffffffffffffffffffffffffffffffff167f4a39dc06d4c0dbc64b70af90fd698a233a518aa5d07e595d983b8c0526c8f7fb87876040516112f3929190614c53565b60405180910390a4611309818787878787612cdf565b505050505050565b600c6020528060005260406000206000915054906101000a900460ff1681565b6000804690508091505090565b600660009054906101000a900473ffffffffffffffffffffffffffffffffffffffff1673ffffffffffffffffffffffffffffffffffffffff163373ffffffffffffffffffffffffffffffffffffffff16146113ce576040517f08c379a00000000000000000000000000000000000000000000000000000000081526004016113c590615058565b60405180910390fd5b600047905060008111611416576040517f08c379a000000000000000000000000000000000000000000000000000000000815260040161140d90615018565b60405180910390fd5b60003373ffffffffffffffffffffffffffffffffffffffff168260405161143c90614b01565b60006040518083038185875af1925050503d8060008114611479576040519150601f19603f3d011682016040523d82523d6000602084013e61147e565b606091505b50509050806114c2576040517f08c379a00000000000000000000000000000000000000000000000000000000081526004016114b990615078565b60405180910390fd5b5050565b600e6020528160005260406000206020528060005260406000206000915091509054906101000a900460ff1681565b60008073ffffffffffffffffffffffffffffffffffffffff168273ffffffffffffffffffffffffffffffffffffffff161415611566576040517f08c379a000000000000000000000000000000000000000000000000000000000815260040161155d90614e78565b60405180910390fd5b6000805b600a805490508110156115ea5760006115c785600a84815481106115b7577f4e487b7100000000000000000000000000000000000000000000000000000000600052603260045260246000fd5b90600052602060002001546108de565b9050600081146115d657600192505b5080806115e2906154d3565b91505061156a565b5080156115fb576001915050611601565b60009150505b919050565b600660009054906101000a900473ffffffffffffffffffffffffffffffffffffffff1681565b60608151835114611672576040517f08c379a0000000000000000000000000000000000000000000000000000000008152600401611669906150d8565b60405180910390fd5b6000835167ffffffffffffffff8111156116b5577f4e487b7100000000000000000000000000000000000000000000000000000000600052604160045260246000fd5b6040519080825280602002602001820160405280156116e35781602001602082028036833780820191505090505b50905060005b84518110156117d25761177c85828151811061172e577f4e487b7100000000000000000000000000000000000000000000000000000000600052603260045260246000fd5b602002602001015185838151811061176f577f4e487b7100000000000000000000000000000000000000000000000000000000600052603260045260246000fd5b60200260200101516108de565b8282815181106117b5577f4e487b7100000000000000000000000000000000000000000000000000000000600052603260045260246000fd5b602002602001018181525050806117cb906154d3565b90506116e9565b508091505092915050565b60011515600c60003373ffffffffffffffffffffffffffffffffffffffff1673ffffffffffffffffffffffffffffffffffffffff16815260200190815260200160002060009054906101000a900460ff16151514611870576040517f08c379a000000000000000000000000000000000000000000000000000000000815260040161186790614fd8565b60405180910390fd5b61187981612eaf565b50565b60088054611889906154a1565b80601f01602080910402602001604051908101604052809291908181526020018280546118b5906154a1565b80156119025780601f106118d757610100808354040283529160200191611902565b820191906000526020600020905b8154815290600101906020018083116118e557829003601f168201915b505050505081565b60011515600c60003373ffffffffffffffffffffffffffffffffffffffff1673ffffffffffffffffffffffffffffffffffffffff16815260200190815260200160002060009054906101000a900460ff1615151461199d576040517f08c379a000000000000000000000000000000000000000000000000000000000815260040161199490614fd8565b60405180910390fd5b60005b8151811015611bba5760008282815181106119e4577f4e487b7100000000000000000000000000000000000000000000000000000000600052603260045260246000fd5b60200260200101519050600073ffffffffffffffffffffffffffffffffffffffff168173ffffffffffffffffffffffffffffffffffffffff161415611a5e576040517f08c379a0000000000000000000000000000000000000000000000000000000008152600401611a5590615138565b60405180910390fd5b600c60008273ffffffffffffffffffffffffffffffffffffffff1673ffffffffffffffffffffffffffffffffffffffff16815260200190815260200160002060009054906101000a900460ff1615611aeb576040517f08c379a0000000000000000000000000000000000000000000000000000000008152600401611ae290614e58565b60405180910390fd5b6001600c60008373ffffffffffffffffffffffffffffffffffffffff1673ffffffffffffffffffffffffffffffffffffffff16815260200190815260200160002060006101000a81548160ff021916908315150217905550600d819080600181540180825580915050600190039060005260206000200160009091909190916101000a81548173ffffffffffffffffffffffffffffffffffffffff021916908373ffffffffffffffffffffffffffffffffffffffff160217905550508080611bb2906154d3565b9150506119a0565b5050565b600047905090565b60011515600c60003373ffffffffffffffffffffffffffffffffffffffff1673ffffffffffffffffffffffffffffffffffffffff16815260200190815260200160002060009054906101000a900460ff16151514611c59576040517f08c379a0000000000000000000000000000000000000000000000000000000008152600401611c5090614fd8565b60405180910390fd5b600181511015611c9e576040517f08c379a0000000000000000000000000000000000000000000000000000000008152600401611c9590614f38565b60405180910390fd5b60005b8151811015611dc557806009838381518110611ce6577f4e487b7100000000000000000000000000000000000000000000000000000000600052603260045260246000fd5b6020026020010151604051611cfb9190614ab3565b908152602001604051809103902081905550600a819080600181540180825580915050600190039060005260206000200160009091909190915055600b828281518110611d71577f4e487b7100000000000000000000000000000000000000000000000000000000600052603260045260246000fd5b6020026020010151908060018154018082558091505060019003906000526020600020016000909190919091509080519060200190611db1929190613592565b508080611dbd906154d3565b915050611ca1565b5050565b8173ffffffffffffffffffffffffffffffffffffffff16611de8612cc8565b73ffffffffffffffffffffffffffffffffffffffff161415611e3f576040517f08c379a0000000000000000000000000000000000000000000000000000000008152600401611e36906150b8565b60405180910390fd5b8060016000611e4c612cc8565b73ffffffffffffffffffffffffffffffffffffffff1673ffffffffffffffffffffffffffffffffffffffff16815260200190815260200160002060008473ffffffffffffffffffffffffffffffffffffffff1673ffffffffffffffffffffffffffffffffffffffff16815260200190815260200160002060006101000a81548160ff0219169083151502179055508173ffffffffffffffffffffffffffffffffffffffff16611ef9612cc8565b73ffffffffffffffffffffffffffffffffffffffff167f17307eab39ab6107e8899845ad3d59bd9653f200f220920489ca2b5937696c3183604051611f3e9190614c8a565b60405180910390a35050565b60011515600c60003373ffffffffffffffffffffffffffffffffffffffff1673ffffffffffffffffffffffffffffffffffffffff16815260200190815260200160002060009054906101000a900460ff16151514611fdd576040517f08c379a0000000000000000000000000000000000000000000000000000000008152600401611fd490614fd8565b60405180910390fd5b600f60405180606001604052808381526020016000815260200160008152509080600181540180825580915050600190039060005260206000209060030201600090919091909150600082015181600001556020820151816001015560408201518160020155505050565b600660149054906101000a900460ff1681565b6009818051602081018201805184825260208301602085012081835280955050505050506000915090505481565b600a818154811061209957600080fd5b906000526020600020016000915090505481565b60001515600660149054906101000a900460ff16151514612103576040517f08c379a00000000000000000000000000000000000000000000000000000000081526004016120fa90614ef8565b60405180910390fd5b670de0b6b3a764000034101561214e576040517f08c379a000000000000000000000000000000000000000000000000000000000815260040161214590615098565b60405180910390fd5b6001600c60003373ffffffffffffffffffffffffffffffffffffffff1673ffffffffffffffffffffffffffffffffffffffff16815260200190815260200160002060006101000a81548160ff021916908315150217905550600d339080600181540180825580915050600190039060005260206000200160009091909190916101000a81548173ffffffffffffffffffffffffffffffffffffffff021916908373ffffffffffffffffffffffffffffffffffffffff1602179055506001600660146101000a81548160ff021916908315150217905550816008908051906020019061223a929190613592565b508060079080519060200190612251929190613592565b5061225b81612ec9565b7fd5b279c14917904ca8e198de8bc44a67edf9ee173f25b014d5f0869f6d47f74b3360405161228a9190614b16565b60405180910390a15050565b61229f336114f5565b6122de576040517f08c379a00000000000000000000000000000000000000000000000000000000081526004016122d590614eb8565b60405180910390fd5b60011515600e600083815260200190815260200160002060003373ffffffffffffffffffffffffffffffffffffffff1673ffffffffffffffffffffffffffffffffffffffff16815260200190815260200160002060009054906101000a900460ff1615151415612383576040517f08c379a000000000000000000000000000000000000000000000000000000000815260040161237a90614f18565b60405180910390fd5b600f81815481106123bd577f4e487b7100000000000000000000000000000000000000000000000000000000600052603260045260246000fd5b906000526020600020906003020160010160008154809291906123df906154d3565b91905055506001600e600083815260200190815260200160002060003373ffffffffffffffffffffffffffffffffffffffff1673ffffffffffffffffffffffffffffffffffffffff16815260200190815260200160002060006101000a81548160ff02191690831515021790555050565b60011515600c60003373ffffffffffffffffffffffffffffffffffffffff1673ffffffffffffffffffffffffffffffffffffffff16815260200190815260200160002060009054906101000a900460ff161515146124e3576040517f08c379a00000000000000000000000000000000000000000000000000000000081526004016124da90614fd8565b60405180910390fd5b6000811415612527576040517f08c379a000000000000000000000000000000000000000000000000000000000815260040161251e90614f78565b60405180910390fd5b6125608360098460405161253b9190614ab3565b9081526020016040518091039020548360405180602001604052806000815250612f6d565b505050565b600073207fa8df3a17d96ca7ea4f2893fcdcb78a30410173ffffffffffffffffffffffffffffffffffffffff168273ffffffffffffffffffffffffffffffffffffffff1614156125b857600190506125c5565b6125c28383613103565b90505b92915050565b600b81815481106125db57600080fd5b9060005260206000200160009150905080546125f6906154a1565b80601f0160208091040260200160405190810160405280929190818152602001828054612622906154a1565b801561266f5780601f106126445761010080835404028352916020019161266f565b820191906000526020600020905b81548152906001019060200180831161265257829003601f168201915b505050505081565b612680336114f5565b6126bf576040517f08c379a00000000000000000000000000000000000000000000000000000000081526004016126b690614eb8565b60405180910390fd5b60011515600e600083815260200190815260200160002060003373ffffffffffffffffffffffffffffffffffffffff1673ffffffffffffffffffffffffffffffffffffffff16815260200190815260200160002060009054906101000a900460ff1615151415612764576040517f08c379a000000000000000000000000000000000000000000000000000000000815260040161275b90614f18565b60405180910390fd5b600f818154811061279e577f4e487b7100000000000000000000000000000000000000000000000000000000600052603260045260246000fd5b906000526020600020906003020160020160008154809291906127c0906154d3565b91905055506001600e600083815260200190815260200160002060003373ffffffffffffffffffffffffffffffffffffffff1673ffffffffffffffffffffffffffffffffffffffff16815260200190815260200160002060006101000a81548160ff02191690831515021790555050565b600073ffffffffffffffffffffffffffffffffffffffff168473ffffffffffffffffffffffffffffffffffffffff1614156128a1576040517f08c379a000000000000000000000000000000000000000000000000000000000815260040161289890614f98565b60405180910390fd5b6128a9612cc8565b73ffffffffffffffffffffffffffffffffffffffff168573ffffffffffffffffffffffffffffffffffffffff1614806128ef57506128ee856128e9612cc8565b612565565b5b61292e576040517f08c379a000000000000000000000000000000000000000000000000000000000815260040161292590614ed8565b60405180910390fd5b6000612938612cc8565b905061295881878761294988613197565b61295288613197565b87612cd7565b600080600086815260200190815260200160002060008873ffffffffffffffffffffffffffffffffffffffff1673ffffffffffffffffffffffffffffffffffffffff168152602001908152602001600020549050838110156129ef576040517f08c379a00000000000000000000000000000000000000000000000000000000081526004016129e690614ff8565b60405180910390fd5b83816129fb919061538e565b60008087815260200190815260200160002060008973ffffffffffffffffffffffffffffffffffffffff1673ffffffffffffffffffffffffffffffffffffffff168152602001908152602001600020819055508360008087815260200190815260200160002060008873ffffffffffffffffffffffffffffffffffffffff1673ffffffffffffffffffffffffffffffffffffffff1681526020019081526020016000206000828254612aad9190615338565b925050819055508573ffffffffffffffffffffffffffffffffffffffff168773ffffffffffffffffffffffffffffffffffffffff168373ffffffffffffffffffffffffffffffffffffffff167fc3d58168c5ae7397731d063d5bbf3d657854427343f4c083240f7aacaa2d0f628888604051612b2a929190615173565b60405180910390a4612b4082888888888861325d565b50505050505050565b670de0b6b3a764000081565b60007f01ffc9a7000000000000000000000000000000000000000000000000000000007bffffffffffffffffffffffffffffffffffffffffffffffffffffffff1916827bffffffffffffffffffffffffffffffffffffffffffffffffffffffff1916149050919050565b60008073ffffffffffffffffffffffffffffffffffffffff168673ffffffffffffffffffffffffffffffffffffffff161415612c30576040517f08c379a0000000000000000000000000000000000000000000000000000000008152600401612c2790614f58565b60405180910390fd5b6001612c43612c3e8761342d565b613495565b83868660405160008152602001604052604051612c639493929190614d8f565b6020604051602081039080840390855afa158015612c85573d6000803e3d6000fd5b5050506020604051035173ffffffffffffffffffffffffffffffffffffffff168673ffffffffffffffffffffffffffffffffffffffff1614905095945050505050565b6000612cd26134ce565b905090565b505050505050565b612cfe8473ffffffffffffffffffffffffffffffffffffffff1661357f565b15612ea7578373ffffffffffffffffffffffffffffffffffffffff1663bc197c8187878686866040518663ffffffff1660e01b8152600401612d44959493929190614b6f565b602060405180830381600087803b158015612d5e57600080fd5b505af1925050508015612d8f57506040513d601f19601f82011682018060405250810190612d8c9190613dac565b60015b612e1e57612d9b615602565b80612da65750612de3565b806040517f08c379a0000000000000000000000000000000000000000000000000000000008152600401612dda9190614df6565b60405180910390fd5b6040517f08c379a0000000000000000000000000000000000000000000000000000000008152600401612e1590614e18565b60405180910390fd5b63bc197c8160e01b7bffffffffffffffffffffffffffffffffffffffffffffffffffffffff1916817bffffffffffffffffffffffffffffffffffffffffffffffffffffffff191614612ea5576040517f08c379a0000000000000000000000000000000000000000000000000000000008152600401612e9c90614e38565b60405180910390fd5b505b505050505050565b8060029080519060200190612ec5929190613592565b5050565b6040518060800160405280604f8152602001615786604f91398051906020012081805190602001206040518060400160405280600181526020017f31000000000000000000000000000000000000000000000000000000000000008152508051906020012030612f37611331565b60001b604051602001612f4e959493929190614cc0565b6040516020818303038152906040528051906020012060048190555050565b600073ffffffffffffffffffffffffffffffffffffffff168473ffffffffffffffffffffffffffffffffffffffff161415612fdd576040517f08c379a0000000000000000000000000000000000000000000000000000000008152600401612fd490615118565b60405180910390fd5b6000612fe7612cc8565b905061300881600087612ff988613197565b61300288613197565b87612cd7565b8260008086815260200190815260200160002060008773ffffffffffffffffffffffffffffffffffffffff1673ffffffffffffffffffffffffffffffffffffffff16815260200190815260200160002060008282546130679190615338565b925050819055508473ffffffffffffffffffffffffffffffffffffffff16600073ffffffffffffffffffffffffffffffffffffffff168273ffffffffffffffffffffffffffffffffffffffff167fc3d58168c5ae7397731d063d5bbf3d657854427343f4c083240f7aacaa2d0f6287876040516130e5929190615173565b60405180910390a46130fc8160008787878761325d565b5050505050565b6000600160008473ffffffffffffffffffffffffffffffffffffffff1673ffffffffffffffffffffffffffffffffffffffff16815260200190815260200160002060008373ffffffffffffffffffffffffffffffffffffffff1673ffffffffffffffffffffffffffffffffffffffff16815260200190815260200160002060009054906101000a900460ff16905092915050565b60606000600167ffffffffffffffff8111156131dc577f4e487b7100000000000000000000000000000000000000000000000000000000600052604160045260246000fd5b60405190808252806020026020018201604052801561320a5781602001602082028036833780820191505090505b5090508281600081518110613248577f4e487b7100000000000000000000000000000000000000000000000000000000600052603260045260246000fd5b60200260200101818152505080915050919050565b61327c8473ffffffffffffffffffffffffffffffffffffffff1661357f565b15613425578373ffffffffffffffffffffffffffffffffffffffff1663f23a6e6187878686866040518663ffffffff1660e01b81526004016132c2959493929190614bd7565b602060405180830381600087803b1580156132dc57600080fd5b505af192505050801561330d57506040513d601f19601f8201168201806040525081019061330a9190613dac565b60015b61339c57613319615602565b806133245750613361565b806040517f08c379a00000000000000000000000000000000000000000000000000000000081526004016133589190614df6565b60405180910390fd5b6040517f08c379a000000000000000000000000000000000000000000000000000000000815260040161339390614e18565b60405180910390fd5b63f23a6e6160e01b7bffffffffffffffffffffffffffffffffffffffffffffffffffffffff1916817bffffffffffffffffffffffffffffffffffffffffffffffffffffffff191614613423576040517f08c379a000000000000000000000000000000000000000000000000000000000815260040161341a90614e38565b60405180910390fd5b505b505050505050565b60006040518060800160405280604381526020016157436043913980519060200120826000015183602001518460400151805190602001206040516020016134789493929190614d13565b604051602081830303815290604052805190602001209050919050565b600061349f610ec8565b826040516020016134b1929190614aca565b604051602081830303815290604052805190602001209050919050565b60003073ffffffffffffffffffffffffffffffffffffffff163373ffffffffffffffffffffffffffffffffffffffff16141561357857600080368080601f016020809104026020016040519081016040528093929190818152602001838380828437600081840152601f19601f820116905080830192505050505050509050600080369050905073ffffffffffffffffffffffffffffffffffffffff81830151169250505061357c565b3390505b90565b600080823b905060008111915050919050565b82805461359e906154a1565b90600052602060002090601f0160209004810192826135c05760008555613607565b82601f106135d957805160ff1916838001178555613607565b82800160010185558215613607579182015b828111156136065782518255916020019190600101906135eb565b5b5090506136149190613618565b5090565b5b80821115613631576000816000905550600101613619565b5090565b6000613648613643846151cd565b61519c565b9050808382526020820190508285602086028201111561366757600080fd5b60005b85811015613697578161367d88826137e6565b84526020840193506020830192505060018101905061366a565b5050509392505050565b60006136b46136af846151f9565b61519c565b9050808382526020820190508260005b858110156136f457813585016136da88826138f7565b8452602084019350602083019250506001810190506136c4565b5050509392505050565b600061371161370c84615225565b61519c565b9050808382526020820190508285602086028201111561373057600080fd5b60005b8581101561376057816137468882613921565b845260208401935060208301925050600181019050613733565b5050509392505050565b600061377d61377884615251565b61519c565b90508281526020810184848401111561379557600080fd5b6137a084828561545f565b509392505050565b60006137bb6137b684615281565b61519c565b9050828152602081018484840111156137d357600080fd5b6137de84828561545f565b509392505050565b6000813590506137f5816156b8565b92915050565b600082601f83011261380c57600080fd5b813561381c848260208601613635565b91505092915050565b600082601f83011261383657600080fd5b81356138468482602086016136a1565b91505092915050565b600082601f83011261386057600080fd5b81356138708482602086016136fe565b91505092915050565b600081359050613888816156cf565b92915050565b60008135905061389d816156e6565b92915050565b6000813590506138b2816156fd565b92915050565b6000815190506138c7816156fd565b92915050565b600082601f8301126138de57600080fd5b81356138ee84826020860161376a565b91505092915050565b600082601f83011261390857600080fd5b81356139188482602086016137a8565b91505092915050565b60008135905061393081615714565b92915050565b6000813590506139458161572b565b92915050565b60006020828403121561395d57600080fd5b600061396b848285016137e6565b91505092915050565b6000806040838503121561398757600080fd5b6000613995858286016137e6565b92505060206139a6858286016137e6565b9150509250929050565b600080600080600060a086880312156139c857600080fd5b60006139d6888289016137e6565b95505060206139e7888289016137e6565b945050604086013567ffffffffffffffff811115613a0457600080fd5b613a108882890161384f565b935050606086013567ffffffffffffffff811115613a2d57600080fd5b613a398882890161384f565b925050608086013567ffffffffffffffff811115613a5657600080fd5b613a62888289016138cd565b9150509295509295909350565b600080600080600060a08688031215613a8757600080fd5b6000613a95888289016137e6565b9550506020613aa6888289016137e6565b9450506040613ab788828901613921565b9350506060613ac888828901613921565b925050608086013567ffffffffffffffff811115613ae557600080fd5b613af1888289016138cd565b9150509295509295909350565b60008060408385031215613b1157600080fd5b6000613b1f858286016137e6565b9250506020613b3085828601613879565b9150509250929050565b600080600080600060a08688031215613b5257600080fd5b6000613b60888289016137e6565b955050602086013567ffffffffffffffff811115613b7d57600080fd5b613b89888289016138cd565b9450506040613b9a8882890161388e565b9350506060613bab8882890161388e565b9250506080613bbc88828901613936565b9150509295509295909350565b600080600060608486031215613bde57600080fd5b6000613bec868287016137e6565b935050602084013567ffffffffffffffff811115613c0957600080fd5b613c15868287016138f7565b9250506040613c2686828701613921565b9150509250925092565b60008060408385031215613c4357600080fd5b6000613c51858286016137e6565b9250506020613c6285828601613921565b9150509250929050565b600060208284031215613c7e57600080fd5b600082013567ffffffffffffffff811115613c9857600080fd5b613ca4848285016137fb565b91505092915050565b60008060408385031215613cc057600080fd5b600083013567ffffffffffffffff811115613cda57600080fd5b613ce6858286016137fb565b925050602083013567ffffffffffffffff811115613d0357600080fd5b613d0f8582860161384f565b9150509250929050565b600060208284031215613d2b57600080fd5b600082013567ffffffffffffffff811115613d4557600080fd5b613d5184828501613825565b91505092915050565b600060208284031215613d6c57600080fd5b6000613d7a8482850161388e565b91505092915050565b600060208284031215613d9557600080fd5b6000613da3848285016138a3565b91505092915050565b600060208284031215613dbe57600080fd5b6000613dcc848285016138b8565b91505092915050565b600060208284031215613de757600080fd5b600082013567ffffffffffffffff811115613e0157600080fd5b613e0d848285016138f7565b91505092915050565b60008060408385031215613e2957600080fd5b600083013567ffffffffffffffff811115613e4357600080fd5b613e4f858286016138f7565b925050602083013567ffffffffffffffff811115613e6c57600080fd5b613e78858286016138f7565b9150509250929050565b600060208284031215613e9457600080fd5b6000613ea284828501613921565b91505092915050565b60008060408385031215613ebe57600080fd5b6000613ecc85828601613921565b9250506020613edd858286016137e6565b9150509250929050565b6000613ef38383614a47565b60208301905092915050565b613f08816153d4565b82525050565b613f17816153c2565b82525050565b613f2e613f29826153c2565b61551c565b82525050565b6000613f3f826152c1565b613f4981856152ef565b9350613f54836152b1565b8060005b83811015613f85578151613f6c8882613ee7565b9750613f77836152e2565b925050600181019050613f58565b5085935050505092915050565b613f9b816153e6565b82525050565b613faa816153f2565b82525050565b613fc1613fbc826153f2565b61552e565b82525050565b6000613fd2826152cc565b613fdc8185615300565b9350613fec81856020860161546e565b613ff5816155d7565b840191505092915050565b600061400b826152cc565b6140158185615311565b935061402581856020860161546e565b80840191505092915050565b600061403c826152d7565b614046818561531c565b935061405681856020860161546e565b61405f816155d7565b840191505092915050565b6000614075826152d7565b61407f818561532d565b935061408f81856020860161546e565b80840191505092915050565b60006140a860348361531c565b91507f455243313135353a207472616e7366657220746f206e6f6e204552433131353560008301527f526563656976657220696d706c656d656e7465720000000000000000000000006020830152604082019050919050565b600061410e60288361531c565b91507f455243313135353a204552433131353552656365697665722072656a6563746560008301527f6420746f6b656e730000000000000000000000000000000000000000000000006020830152604082019050919050565b600061417460108361531c565b91507f6f776e6572206e6f7420756e69717565000000000000000000000000000000006000830152602082019050919050565b60006141b4602b8361531c565b91507f455243313135353a2062616c616e636520717565727920666f7220746865207a60008301527f65726f20616464726573730000000000000000000000000000000000000000006020830152604082019050919050565b600061421a601c8361531c565b91507f46756e6374696f6e2063616c6c206e6f74207375636365737366756c000000006000830152602082019050919050565b600061425a60028361532d565b91507f19010000000000000000000000000000000000000000000000000000000000006000830152600282019050919050565b600061429a602d8361531c565b91507f596f75206e656564206f776e657273686970206f66204e465473206f7220436f60008301527f696e7320666f7220746869732e000000000000000000000000000000000000006020830152604082019050919050565b600061430060298361531c565b91507f455243313135353a2063616c6c6572206973206e6f74206f776e6572206e6f7260008301527f20617070726f76656400000000000000000000000000000000000000000000006020830152604082019050919050565b600061436660238361531c565b91507f534f4c442e2046696e6420616e6f746865722044414f20746f2070757263686160008301527f73652e00000000000000000000000000000000000000000000000000000000006020830152604082019050919050565b60006143cc60228361531c565b91507f596f7520616c726561647920766f746564206f6e20746869732070726f706f7360008301527f616c0000000000000000000000000000000000000000000000000000000000006020830152604082019050919050565b6000614432601c8361531c565b91507f4e6f20617267756d656e747320776572652070617373656420696e2e000000006000830152602082019050919050565b600061447260258361531c565b91507f4e61746976654d6574615472616e73616374696f6e3a20494e56414c49445f5360008301527f49474e45520000000000000000000000000000000000000000000000000000006020830152604082019050919050565b60006144d860288361531c565b91507f4661696c656420746f206d696e742e204e6f20616d6f756e742077617320706160008301527f7373656420696e2e0000000000000000000000000000000000000000000000006020830152604082019050919050565b600061453e60258361531c565b91507f455243313135353a207472616e7366657220746f20746865207a65726f20616460008301527f64726573730000000000000000000000000000000000000000000000000000006020830152604082019050919050565b60006145a460328361531c565b91507f455243313135353a207472616e736665722063616c6c6572206973206e6f742060008301527f6f776e6572206e6f7220617070726f76656400000000000000000000000000006020830152604082019050919050565b600061460a60248361531c565b91507f596f75206e65656420746f2068617665206f776e65727368697020666f72207460008301527f6869732e000000000000000000000000000000000000000000000000000000006020830152604082019050919050565b6000614670602a8361531c565b91507f455243313135353a20696e73756666696369656e742062616c616e636520666f60008301527f72207472616e73666572000000000000000000000000000000000000000000006020830152604082019050919050565b60006146d660198361531c565b91507f4e6f206574686572206c65667420746f207769746864726177000000000000006000830152602082019050919050565b600061471660218361531c565b91507f5369676e657220616e64207369676e617475726520646f206e6f74206d61746360008301527f68000000000000000000000000000000000000000000000000000000000000006020830152604082019050919050565b600061477c601f8361531c565b91507f596f7520617265206e6f7420746865206f726967696e616c2073656c6c6572006000830152602082019050919050565b60006147bc600083615311565b9150600082019050919050565b60006147d660108361531c565b91507f5472616e73666572206661696c65642e000000000000000000000000000000006000830152602082019050919050565b600061481660158361531c565b91507f4e6f7420656e6f756768207061792c20436861642e00000000000000000000006000830152602082019050919050565b600061485660298361531c565b91507f455243313135353a2073657474696e6720617070726f76616c2073746174757360008301527f20666f722073656c6600000000000000000000000000000000000000000000006020830152604082019050919050565b60006148bc60298361531c565b91507f455243313135353a206163636f756e747320616e6420696473206c656e67746860008301527f206d69736d6174636800000000000000000000000000000000000000000000006020830152604082019050919050565b600061492260288361531c565b91507f455243313135353a2069647320616e6420616d6f756e7473206c656e6774682060008301527f6d69736d617463680000000000000000000000000000000000000000000000006020830152604082019050919050565b600061498860218361531c565b91507f455243313135353a206d696e7420746f20746865207a65726f2061646472657360008301527f73000000000000000000000000000000000000000000000000000000000000006020830152604082019050919050565b60006149ee60258361531c565b91507f696e76616c6964206f776e65722e2063616e6e6f74206265207a65726f20616460008301527f64726573730000000000000000000000000000000000000000000000000000006020830152604082019050919050565b614a5081615448565b82525050565b614a5f81615448565b82525050565b614a6e81615452565b82525050565b6000614a808284614000565b915081905092915050565b6000614a978285614000565b9150614aa38284613f1d565b6014820191508190509392505050565b6000614abf828461406a565b915081905092915050565b6000614ad58261424d565b9150614ae18285613fb0565b602082019150614af18284613fb0565b6020820191508190509392505050565b6000614b0c826147af565b9150819050919050565b6000602082019050614b2b6000830184613f0e565b92915050565b6000606082019050614b466000830186613f0e565b614b536020830185613eff565b8181036040830152614b658184613fc7565b9050949350505050565b600060a082019050614b846000830188613f0e565b614b916020830187613f0e565b8181036040830152614ba38186613f34565b90508181036060830152614bb78185613f34565b90508181036080830152614bcb8184613fc7565b90509695505050505050565b600060a082019050614bec6000830188613f0e565b614bf96020830187613f0e565b614c066040830186614a56565b614c136060830185614a56565b8181036080830152614c258184613fc7565b90509695505050505050565b60006020820190508181036000830152614c4b8184613f34565b905092915050565b60006040820190508181036000830152614c6d8185613f34565b90508181036020830152614c818184613f34565b90509392505050565b6000602082019050614c9f6000830184613f92565b92915050565b6000602082019050614cba6000830184613fa1565b92915050565b600060a082019050614cd56000830188613fa1565b614ce26020830187613fa1565b614cef6040830186613fa1565b614cfc6060830185613f0e565b614d096080830184613fa1565b9695505050505050565b6000608082019050614d286000830187613fa1565b614d356020830186614a56565b614d426040830185613f0e565b614d4f6060830184613fa1565b95945050505050565b6000606082019050614d6d6000830186613fa1565b614d7a6020830185614a56565b614d876040830184614a56565b949350505050565b6000608082019050614da46000830187613fa1565b614db16020830186614a65565b614dbe6040830185613fa1565b614dcb6060830184613fa1565b95945050505050565b60006020820190508181036000830152614dee8184613fc7565b905092915050565b60006020820190508181036000830152614e108184614031565b905092915050565b60006020820190508181036000830152614e318161409b565b9050919050565b60006020820190508181036000830152614e5181614101565b9050919050565b60006020820190508181036000830152614e7181614167565b9050919050565b60006020820190508181036000830152614e91816141a7565b9050919050565b60006020820190508181036000830152614eb18161420d565b9050919050565b60006020820190508181036000830152614ed18161428d565b9050919050565b60006020820190508181036000830152614ef1816142f3565b9050919050565b60006020820190508181036000830152614f1181614359565b9050919050565b60006020820190508181036000830152614f31816143bf565b9050919050565b60006020820190508181036000830152614f5181614425565b9050919050565b60006020820190508181036000830152614f7181614465565b9050919050565b60006020820190508181036000830152614f91816144cb565b9050919050565b60006020820190508181036000830152614fb181614531565b9050919050565b60006020820190508181036000830152614fd181614597565b9050919050565b60006020820190508181036000830152614ff1816145fd565b9050919050565b6000602082019050818103600083015261501181614663565b9050919050565b60006020820190508181036000830152615031816146c9565b9050919050565b6000602082019050818103600083015261505181614709565b9050919050565b600060208201905081810360008301526150718161476f565b9050919050565b60006020820190508181036000830152615091816147c9565b9050919050565b600060208201905081810360008301526150b181614809565b9050919050565b600060208201905081810360008301526150d181614849565b9050919050565b600060208201905081810360008301526150f1816148af565b9050919050565b6000602082019050818103600083015261511181614915565b9050919050565b600060208201905081810360008301526151318161497b565b9050919050565b60006020820190508181036000830152615151816149e1565b9050919050565b600060208201905061516d6000830184614a56565b92915050565b60006040820190506151886000830185614a56565b6151956020830184614a56565b9392505050565b6000604051905081810181811067ffffffffffffffff821117156151c3576151c26155a8565b5b8060405250919050565b600067ffffffffffffffff8211156151e8576151e76155a8565b5b602082029050602081019050919050565b600067ffffffffffffffff821115615214576152136155a8565b5b602082029050602081019050919050565b600067ffffffffffffffff8211156152405761523f6155a8565b5b602082029050602081019050919050565b600067ffffffffffffffff82111561526c5761526b6155a8565b5b601f19601f8301169050602081019050919050565b600067ffffffffffffffff82111561529c5761529b6155a8565b5b601f19601f8301169050602081019050919050565b6000819050602082019050919050565b600081519050919050565b600081519050919050565b600081519050919050565b6000602082019050919050565b600082825260208201905092915050565b600082825260208201905092915050565b600081905092915050565b600082825260208201905092915050565b600081905092915050565b600061534382615448565b915061534e83615448565b9250827fffffffffffffffffffffffffffffffffffffffffffffffffffffffffffffffff038211156153835761538261554a565b5b828201905092915050565b600061539982615448565b91506153a483615448565b9250828210156153b7576153b661554a565b5b828203905092915050565b60006153cd82615428565b9050919050565b60006153df82615428565b9050919050565b60008115159050919050565b6000819050919050565b60007fffffffff0000000000000000000000000000000000000000000000000000000082169050919050565b600073ffffffffffffffffffffffffffffffffffffffff82169050919050565b6000819050919050565b600060ff82169050919050565b82818337600083830152505050565b60005b8381101561548c578082015181840152602081019050615471565b8381111561549b576000848401525b50505050565b600060028204905060018216806154b957607f821691505b602082108114156154cd576154cc615579565b5b50919050565b60006154de82615448565b91507fffffffffffffffffffffffffffffffffffffffffffffffffffffffffffffffff8214156155115761551061554a565b5b600182019050919050565b600061552782615538565b9050919050565b6000819050919050565b6000615543826155e8565b9050919050565b7f4e487b7100000000000000000000000000000000000000000000000000000000600052601160045260246000fd5b7f4e487b7100000000000000000000000000000000000000000000000000000000600052602260045260246000fd5b7f4e487b7100000000000000000000000000000000000000000000000000000000600052604160045260246000fd5b6000601f19601f8301169050919050565b60008160601b9050919050565b60008160e01c9050919050565b600060443d1015615612576156b5565b60046000803e6156236000516155f5565b6308c379a0811461563457506156b5565b60405160043d036004823e80513d602482011167ffffffffffffffff82111715615660575050506156b5565b808201805167ffffffffffffffff81111561567f5750505050506156b5565b8060208301013d850181111561569a575050505050506156b5565b6156a3826155d7565b60208401016040528296505050505050505b90565b6156c1816153c2565b81146156cc57600080fd5b50565b6156d8816153e6565b81146156e357600080fd5b50565b6156ef816153f2565b81146156fa57600080fd5b50565b615706816153fc565b811461571157600080fd5b50565b61571d81615448565b811461572857600080fd5b50565b61573481615452565b811461573f57600080fd5b5056fe4d6574615472616e73616374696f6e2875696e74323536206e6f6e63652c616464726573732066726f6d2c62797465732066756e6374696f6e5369676e617475726529454950373132446f6d61696e28737472696e67206e616d652c737472696e672076657273696f6e2c6164647265737320766572696679696e67436f6e74726163742c627974657333322073616c7429a2646970667358221220bfebc5e70bffbc6c47ab933907bf22cbd1c57cd9e94db7328363ea7f374e672164736f6c63430008000033454950373132446f6d61696e28737472696e67206e616d652c737472696e672076657273696f6e2c6164647265737320766572696679696e67436f6e74726163742c627974657333322073616c7429",
  "linkReferences": {},
  "deployedLinkReferences": {}
}